:1000000000000320D10100009D07000055070000FB
:100010005507000055070000550700005507000070
:100020005507000055070000550700009D07000018
:100030009D07000055070000C9170000CD170000FC
:100040009D0700009D0700009D0700009D07000020
:100050009D0700009D0700009D0700009D07000010
:100060009D0700009D0700009D0700009D07000000
:100070009D0700009D0700009D0700009D070000F0
:100080009D0700009D0700009D0700009D070000E0
:100090009D0700009D0700009D0700009D070000D0
:1000A0009D0700009D0700009D0700009D070000C0
:1000B0009D0700009D0700009D0700009D070000B0
:1000C0009D0700009D0700009D0700009D070000A0
:1000D0009D0700009D0700009D0700009D07000090
:1000E0009D0700009D0700009D0700009D07000080
:1000F0009D0700009D0700009D0700009D07000070
:100100009D0700009D0700009D0700009D0700005F
:100110009D070000650C00009D0700009D07000082
:100120009D0700009D0700009D0700009D0700003F
:100130009D0700009D0700009D0700009D0700002F
:100140009D0700009D0700009D0700009D0700001F
:100150009D0700009D0700009D0700009D0700000F
:100160009D0700009D0700009D0700009D070000FF
:100170009D0700009D0700009D0700009D070000EF
:100180009D0700009D0700009D0700009D070000DF
:100190009D0700009D0700009D0700009D070000CF
:1001A0009D0700009D0700009D0700009D070000BF
:1001B0009D0700009D0700009D0700009D070000AF
:1001C0009D0700009D0700009D0700009D0700009F
:1001D0005C4B4CF2205210B51A804DF628121A8052
:1001E00000BF00BF00F0DEFA574B4FF030621A60DC
:1001F000564A9A60564ADA60564B4FF470021A60BB
:10020000554B564A1A60564B1A78110703D51A787F
:1002100042F008021A70534B5349AA221A70534AEB
:10022000534B8B4204D252F8040F43F8040BF8E707
:10023000504B514900228B4202D243F8042BFAE77B
:100240004E494F4A002352F8230041F8230001335E
:10025000742BF8D14B4B4C4A802103F8011B93427D
:10026000FBD14A4B454A1A60494B8A221A70A3F5C2
:10027000805324225A70A0221A709A799207FCD5D2
:100280009A79D406FCD4434A937903F00C03082BE3
:10029000FAD1414B60221A7002331A78802AFCD1BD
:1002A0003C4B01221A715D225A719A799006FCD555
:1002B0009979384A4906FBD5384B394919600021EC
:1002C000596020231370937903F00C030C2BFAD19F
:1002D000344B354A1A60354A354C136813F4807331
:1002E00003D123604FF4A8531360324B324A1A6093
:1002F00000225A60072243F8042C304AC3F80C2D20
:1003000062B600F001FB2368DA0705D52C4800F03F
:10031000E7FA2C4B2C4A1A602C4B1B785B0609D54C
:10032000284C294B22689A4204D1254800F0D8FA7B
:100330000023236000F03CFA01F02AFB00F02EF9C4
:10034000FEE700BF0E20054030800440823F0400DD
:100350000100002B88ED00E0002008E0030000858C
:1003600002D0074000E00740080CFF1F501D0000AE
:100370003007FF1F080CFF1F640DFF1F0002FF1F47
:100380000000000000E400E064E400E008ED00E0AC
:10039000005006400040064001E007404480044011
:1003A0000000060204800440C010070010D0034083
:1003B00014D0034014E000E01FBF02000000202022
:1003C000077ABA631CE00340A5C3945A00F00740C3
:1003D000FFFFFFFFFFFFFFFFFFFFFFFFFFFFFFFF2D
:1003E000FFFFFFFFFFFFFFFFFFFFFFFFFFFFFFFF1D
:1003F000FFFFFFFFFFFFFFFFFFFFFFFFFFFFFFFF0D
:10040000FFFFFFFFFFFFFFFFFFFFFFFFDEF9FFFF23
:1004100010B5054C237833B9044B13B10448AFF33E
:1004200000800123237010BD080CFF1F0000000096
:10043000541D0000084B10B51BB108490848AFF324
:1004400000800848036803B910BD074B002BFBD0A0
:10045000BDE81040184700BF000000000C0CFF1F53
:10046000541D0000080CFF1F0000000010B5012102
:100470000D2000F01BFB01210D2000F005FB0024E6
:1004800020460021013400F05BF8B4F5805FF7D11D
:1004900010BD00BF08B50D2000F0FCFA4FF47A70D3
:1004A000BDE8084000F008BB00F000B8F0B585B02A
:1004B0001B496846102200F079F81A4B1B789907FF
:1004C00021D5194A194D137813F0700318BF137012
:1004D00000F070F9164A1749174B8027177000264D
:1004E000122005222E706C4608701A7072B6043DF8
:1004F00044F001042846A04762B600F075F92B7855
:1005000013F0700309D10D4B064901E0013B02D005
:100510000A78D207FAD505B0F0BD2B7005B0F0BD52
:10052000CC1A00000100024000000240040002401A
:10053000070002400B0002400A000240410D030088
:10054000B0F5805F1DD238B5124B1B78DA070D4627
:10055000044617D504F1A0542378AB4210D000F024
:1005600029F90D4A137813F0700318BF1370094A64
:1005700025701378DB07FCD5BDE8384000F034B9AE
:1005800038BD704704F1A054FFF790FF2378AB42C9
:10059000E5D1F5E7010002400000024008B5FFF791
:1005A00065FFFFF777FF01F077F8FAE701B441EA5A
:1005B000000313F003036FD1403A41D351F8043BD9
:1005C00040F8043B51F8043B40F8043B51F8043B2D
:1005D00040F8043B51F8043B40F8043B51F8043B1D
:1005E00040F8043B51F8043B40F8043B51F8043B0D
:1005F00040F8043B51F8043B40F8043B51F8043BFD
:1006000040F8043B51F8043B40F8043B51F8043BEC
:1006100040F8043B51F8043B40F8043B51F8043BDC
:1006200040F8043B51F8043B40F8043B51F8043BCC
:1006300040F8043B51F8043B40F8043B403ABDD23B
:10064000303211D351F8043B40F8043B51F8043BDD
:1006500040F8043B51F8043B40F8043B51F8043B9C
:1006600040F8043B103AEDD20C3205D351F8043B6C
:1006700040F8043B043AF9D204320AD0D2071CBF36
:1006800011F8013B00F8013B03D30B7803704B7862
:10069000437001BC704700BF0C2A4AD310F003031B
:1006A00011D0C3F10403D21ADB071CBF11F8013BC0
:1006B00000F8013B07D311F8013B00F8013B11F8AA
:1006C000013B00F8013B11F003033FF475AF30B478
:1006D000043AC91AC3F1040C51F8044B022B19D087
:1006E000032B0BD0240A51F8043B1D0644EA0504F1
:1006F00040F8044B1C46043AF4D216E0240E51F89C
:10070000043B1D0244EA050440F8044B1C46043A2D
:10071000F4D20AE0240C51F8043B1D0444EA050419
:1007200040F8044B1C46043AF4D20432B1EB0C01FD
:1007300030BC043AA0D3013A11F8013B00F8013B68
:10074000F9D20B7803704B7843708B78837001BCBF
:10075000704700BF08B5104C08E0236859050DD458
:1007600023681A050FD42368DB0411D423685803C7
:10077000F3D500F077FA23685905F1D500F00EF8AB
:1007800023681A05EFD500F009F82368DB04EDD5DE
:1007900000F004F8EAE700BF3480044008B5FFF732
:1007A000D9FF00BF014B10221A807047002005407E
:1007B000704700BF084A1378802B01D00020704793
:1007C0000649074B07480860002119701378802BF1
:1007D000FCD00120704700BF03E007404480044084
:1007E00001E0074000002822094A1378012B01D0BC
:1007F0000020704703F1804303F5FC23602119704A
:100800001378802BFCD1034B034A1A6001207047F8
:1008100003E00740448004400000060210B4114B7E
:1008200053F8302092F8804234B1012379B182F834
:1008300080305DF8044B704703EBC0035B681A68B7
:1008400051B922F002021A605DF8044B704782F839
:1008500000315DF8044B704742F003021A605DF806
:10086000044B7047DC1A00001C4A02EBC00301294C
:100870005B6811D004291BD052F83000002280F8A8
:10088000802229B1022920D0032922D01A60704782
:100890004FF480721A60704752F830004FF4A27221
:1008A00080F880121A601A6822F020021A607047DD
:1008B00052F830104FF4A272012081F880021A60C1
:1008C0001A6842F020021A60704740F203121A6060
:1008D00070474FF481721A60704700BFDC1A000045
:1008E00030B4054B054D064C002210211A602A60D9
:1008F0002060196030BC704714D0034004D003401E
:1009000000D00340704700BF524B5348DFF870C11E
:1009100052494FF00062F0B51A604FF080521A60F1
:100920004FF000521A604FF080421A604FF00042C0
:100930001A604B4CDFF84CE14A4E4B4D4B4F0022B6
:10094000026028234EF6FF70CCF80000CEF800308D
:1009500023600EF5012E0B6033602B6006F5002638
:100960003B6005F50025A36207F500278B6204F5BF
:10097000012401F5012106F6E87605F6E87507F58C
:100980007F6710310EF1100E203433602B60CEF8EB
:1009900000303B600B602360354CBB618B610921EB
:1009A0002160A7F5002704F58054203F08343A6001
:1009B0002060BB60E36047F8041C04F5FD2407F5E4
:1009C000FE27043704F2FC7422603860A360FB60E9
:1009D00044F8041C083404F6FC74C7F8FC2F2060AB
:1009E000A4F5E124A4F2DC7433602B60C7F8F81F8F
:1009F0002168204841F40071216001681E4C0EF509
:100A00007F4E0EF1E80E41F0007107F5883706F5CC
:100A1000803605F580350160CEF8002047F6FF717D
:100A20000822396083B033602B60226000F0D6FE6C
:100A3000FFF768FF114C23680093009B132BFAD932
:100A400000F04AFD23680193019BB3F5967FF9D32B
:100A500003B0F0BD04E100E0048003401C800340CB
:100A600014800340248003402C80034034800340E2
:100A7000008003400480044000900C40240CFF1FC1
:100A8000088003400C8003403F2801D8FFF7C6BE12
:100A9000704700BF3F2805D8034B53F83030012280
:100AA00083F88021704700BFDC1A00003F2801D87E
:100AB000FFF7DABE704700BF2DE9F843054672B66E
:100AC000224F234B234A1B683C68126862B65201CE
:100AD00002D5322B88BF0134B5B3C3F52F3303F2EF
:100AE0001F331D4EDFF86890DFF868809B084FF4D5
:100AF0007A72A6FB031302FB04F404EB930472B6B0
:100B0000D9F800103A68D8F800E062B6C1F52F3382
:100B100003F21F339B08A6FB03031EF0806FC4EB98
:100B200093034FF47A7002D0322988BF013200FB60
:100B30000233B3F57A7F04D3013D05D004F57A740E
:100B4000DDE700F0A9FDDAE7BDE8F883240CFF1F1C
:100B500018E000E004ED00E0176CC116F0B472B6C6
:100B60001A491B4E012311F8014B194F9A00240713
:100B700042F0010505D556F8324064B156F83520EB
:100B8000BAB10133052BEED162B6124B00221A70B6
:100B9000F0BC00F023BD0F4C0F4D217807EB431341
:100BA000083001395860217047F8325062B6F0BC05
:100BB0007047084A0949137807EBC5040830013B20
:100BC0006060137047F8351062B6F0E7DC1C000077
:100BD0000000FF1FFD0CFF1F88004000C800400000
:100BE000431E032B1DD81B4A400140F0100030B4B7
:100BF000104472B6184CE25C032A1BD8DFE802F0FE
:100C00000212151703220D88E25410F0080F14BFCA
:100C1000C823882343EA054308314160036062B674
:100C200030BC704708300222EDE70522EBE70830C0
:100C30000422E8E7094A52F8230038B1084A52F87A
:100C40002300416042F8231062B6E9E742F823101E
:100C5000034AF7E70000FF1F0C0DFF1FD40CFF1F16
:100C6000E40CFF1F2DE9F04FDFF814B3DFF814A3F5
:100C700087B044E0AD4F4FEA930807EBC809013E47
:100C8000D9F8042003F00803F6B2A2F1080003F03B
:100C9000FF04002B40F0038157F838301B0C99B249
:100CA00022F8081C002B00F0F180A14B22F8064C22
:100CB00042F8044C53F82620002A00F06C819D4D28
:100CC00055F8263058609C4C45F8260034F816300C
:100CD000194424F8161000F061FC002800F054813B
:100CE000964A974B19F0080F00F1080018BF1346F9
:100CF000C9F8040047F8383008238BF800309BF817
:100D00000040E4B260071BD58E4B1B78ABB18E4917
:100D10000A7802F0FF032AB1013BDBB20B70002B13
:100D200000F0B58389490A7802F0FF032AB1013B3C
:100D3000DBB20B70002B00F0F68004238BF8003040
:100D400004F0080303F0FF02002B00F0D5809AF8AE
:100D50000030DBB21E098DD19C08744F57F8342047
:100D600007EBC401C2F38302013A49680C2A7ED81A
:100D7000DFE802F081817D7D7D7D7D7D427D7D7D11
:100D800007000868724B734D01936C4B4A68724EB2
:100D900047F8343081B240F281646D4B6A6028605C
:100DA00000220120A1423A611A60BA61307000F25B
:100DB000F680B1F5D06F80F0E882B1F5817F00F068
:100DC000D38200F2D881802900F04D81822940F041
:100DD0009282A988614B01F07F01042900F28C8284
:100DE0005F4C89000B44227062701A78930740F1BF
:100DF0003883207002203AE1554B01931A6862B3A0
:100E0000584B5949544E18880C7896F800E0402801
:100E1000054684F0010C28BF402544F00204BEF1D1
:100E2000000F81F800C0A0EB050007EBC40C0CBF5D
:100E30008821C82180B28EF0010E41EA0541CCF82C
:100E40000420188086F800E02A4447F8341010B9CE
:100E5000402D18BF0022019B1A603E4B1A88B2F544
:100E6000A06F04D100219A785970404B1A70404A03
:100E70000123137040E7374A158842F2210085426A
:100E800000F052812D4A47F83420F0E72B4A2C4BD2
:100E900019F0080F18BF134647F838302CE700F058
:100EA0009DFB344A344952F82630002B00F02D8146
:100EB00058688C5D42F8260003F10802C9F8042046
:100EC000032C05D8DFE804F0120F150204228A551E
:100ED0001A8819F0080F0CBF8823C82343EA02437D
:100EE00047F8383008E702228A55F1E703228A558D
:100EF000EEE705228A55EBE7E00700F1788121064D
:100F000000F1A281A20706D51C4A1D4913780220D0
:100F1000DBB213700870E30602D5194B10221A7069
:100F200007B0BDE8F08F00F093FB06E70000FF1F5D
:100F3000800CFF1F2C0CFF1F500DFF1FC80040002E
:100F400088004000080DFF1F910CFF1F100DFF1FB0
:100F5000280CFF1FF40CFF1F900CFF1FC020074040
:100F6000000DFF1F3C0CFF1FFC0CFF1F98200740CB
:100F700094200740D40CFF1F0C0DFF1F8820074052
:100F80008020074090200740B74A47F83800137880
:100F900001331370B0E643F82600B44D93E642F2F5
:100FA0002104A14200F0AD8000F20E81B1F5086F7E
:100FB00000F05481B1F5106F40F09D81AC4AA978E2
:100FC0001170AC4D042402E00134142C0CD057F8FD
:100FD00034301906F8D505EBC403013458680838D5
:100FE00000F0FCFA142CF2D1A349A44BA44A0291BC
:100FF000A449A54C9D4D039405964FF000098846E1
:101000001C4616460495206828B1456800F0E6FAAB
:101010002846002DF9D100232360049B30681A462E
:10102000002342F8293028B1456800F0D7FA284655
:10103000002DF9D100223260029A98F80030114652
:10104000002241F8042B039A0291023B4FF0000169
:1010500022F81910032B00F2B481DFE813F0E2014B
:10106000AE01E201AE01894C022022706270EA8872
:10107000824280F00D8286490D78402A45F0020EAA
:10108000944607EBCE0028BF4FF0400C04EB0C0356
:1010900044600293CCEB02004FEA0C484FF0010988
:1010A0000022C82444EA080385F0010447F83E30D2
:1010B00032700C70DFF8BCE1764BDFF8D481002889
:1010C00040F02081BCF1400F1BD144F0020407EB3B
:1010D000C403029FDFF89CE15F60002A40F0278193
:1010E000020442F0880286F800900D7007444EF822
:1010F00034203B46402804D10020674A01991080E3
:101100000B60664A01231370B1E68B5D032B00F27E
:10111000248101A252F823F0F90C0000F90C000020
:101120003D12000043120000928862B95C4ACD1D56
:1011300011F8013B02F8013F8D42F9D1594A12687A
:10114000862A00F0C9805249524E0878327840F021
:10115000020580F00100087007EBC501002A4FF07E
:101160000000486082F001020CBF8821C82147F8C6
:101170003510327086E640F20232914240F0B08083
:10118000A98801F07F01042900F2B5806A88002A4D
:1011900040F0B180444C89000C448146217841F0F4
:1011A000020121700020029080468446044638499E
:1011B0000D7845F0020E07EBCE03B9F1000F5C602D
:1011C0000CBF8824C8246DE742F22124A14240F0DC
:1011D0008E80A988002940F04281344B344A354C36
:1011E0001B68AD78136081460A462570DAE72B4903
:1011F000204B3148264EDFF8B0C0304DDFF8D4E048
:101200002F4F02240C702F4C18605C6098602E48A1
:10121000D8601A619A610D2332702C4C8CF8003022
:101220002B4EFF232B7001209F258EF800303A7043
:1012300033702570087007B0BDE8F08F00238B5520
:101240005AE501238B5557E51749224B80220D2083
:1012500008701A70A2077FF55EAE55E6044A0B4C83
:101260001278227003E700BFFD0CFF1F2C0CFF1F3C
:10127000080DFF1F0000FF1FE40CFF1F800CFF1F65
:10128000D40CFF1F0C0DFF1F500DFF1F000DFF1F83
:10129000FC0CFF1F900CFF1F3C0CFF1F942007400D
:1012A000570DFF1F580DFF1FC0200740240CFF1FC4
:1012B000600DFF1F1C0DFF1F8800400088200740A5
:1012C00098200740400CFF1F940CFF1F842007400C
:1012D0008C20074080200740754A0F21117032E7AB
:1012E000B1F5A06F07D100224FF001095AE742F291
:1012F00021329142F7D06F4B0F221A706E4A0123B0
:101300001370B4E540287FF6E0AE44F002040EEB23
:10131000C401029E4E60AAB183F80090674A88F823
:1013200000503346403840334EF83420E5E6029B07
:1013300086F80090020442F0C8020D7003444EF893
:101340003420D7E683F80090029B5D4A88F800506D
:10135000403840334EF83420CFE619F0080F0CBF68
:10136000022303238B55C7E4A98801F07F010429D8
:10137000C1D86A88002ABED14E4C89000C448146EF
:10138000217821F0020121700CE74E4A5468002CAC
:10139000B1D06888B5F804E003E00C325468002C42
:1013A000A9D013888342F8D153887345F5D1000A38
:1013B00003280CBF2078108959E64FF0010388F804
:1013C000003009F10109B9F1040F04F1040406F138
:1013D000040608F101087FF416AE3B4B059E3B4D19
:1013E000DFF8F080002018704FF0010918F8013B79
:1013F00005F8043B1A0719D44FEA890444F00202A5
:1014000044F00304002347F8323047F83430304BBF
:101410009D4209F10109E9D196F8009089F0010295
:10142000C0E64FF0000388F80030CAE700F0B6F8D5
:1014300018B307EB49134FEA890408305860204B72
:1014400047F8343000F0AAF868B144F0010307EB24
:10145000C30208305060194A47F83320CEE781466E
:10146000A0E6022003E6184B44F001021B7847F87F
:101470003200154A01331370C0E7134B124A1B7830
:101480004FEA8904013347F834001370DAE700BEED
:101490004028844628BF4FF0400C04EB0C03CCEBF3
:1014A00000004FEA0C48029300224FF001097EE64B
:1014B000910CFF1FC020074094200740C800400047
:1014C00088004000E01C0000FD0CFF1FC420074006
:1014D000D4200740DC1C0000F8B500F0F1F900232F
:1014E00024491A4601EBC30041F833200133142B81
:1014F00042604FF000041F48F4D11F491F4A0B6897
:10150000DFF890C01E4E1F4F1F4DDFF88CE043F4F4
:1015100080230B60136843F04073136003238CF83F
:10152000003001F52831A02333707C3102F5C92247
:10153000C0F307233B701032C0F307430B70000E5B
:10154000FF2328708EF80030104D0CF8BC3C10487A
:101550001370012306F8AC3C81F8504070264FF41C
:101560000014102107F8183C2E70046082F8F8105F
:10157000F8BD00BF0000FF1F3480044000D80040C9
:10158000402107409C200740B420074035E400E09C
:1015900004E100E0442107408020074072B60D4876
:1015A0000268B2FA82F30B2B10DC4FF00041D940F5
:1015B00022EA0102026062B6074803EBC303DB00C4
:1015C000C2180021C15010465160704762B6002019
:1015D000704700BF3007FF1FD003FF1F0D4B0E4A9F
:1015E000C31AA2FB03231B090B2B0CD80B4A12783E
:1015F00052B972B60A484FF00041026821FA03F36B
:101600001A43026062B67047064A1278002AF0D088
:10161000FFF7A4BAD003FF1F398EE338FD0CFF1F7C
:101620003007FF1F080DFF1F074B084A1B6810B546
:1016300094881BB11A885B88D31A1C440CB900F03B
:101640002BF8204610BD00BF180DFF1F500DFF1FC7
:1016500038B50E4B1B7873B90D4C216861B103F09E
:10166000FF054B880B800420FFF7BAFA256038BDD0
:10167000084B01221A7038BDFFF790FF0028F7D001
:101680000146BDE838400420FFF7AABA110DFF1F3C
:10169000140DFF1F100DFF1F2DE9F843314E337855
:1016A00093B1314F3A787AB90122D9073A7036D4DA
:1016B0009A0719D400225B073A7005D52B4B1A689C
:1016C00012B1EFF305820AB1BDE8F883EFF31081A0
:1016D00072B6186818B1264C2278002A2ED000293C
:1016E000F2D162B6BDE8F883DFF8908098F8002068
:1016F000002ADFD0DFF88890002405E0013498F854
:101700000030E4B2A34212D959F824502B6828467D
:101710001B6998470028F1D02B699847EEE7FFF73F
:1017200083FFC8B9134B1B781BB93378C0E73378F4
:10173000C0E7337803F0FE033370B9E745691D60F5
:10174000012323705DB1AA6101B962B60025457716
:10175000836898472570B7E700F0B0F8E2E7064BDA
:101760001D60F1E73407FF1F1D0DFF1F2C0DFF1F2C
:10177000300DFF1F3707FF1F280DFF1F4C0DFF1FE8
:10178000340DFF1F70B5EFF3108272B60C4C206859
:1017900080B10C4E00254369236073B19D6102B98D
:1017A00062B6457783689847EFF3108272B6206877
:1017B0000028F0D102B962B670BD3360EFE700BF18
:1017C000200DFF1F240DFF1FFFF7DCBF024A136827
:1017D00001331360704700BF240CFF1F30B4294849
:1017E000294A2A4B2A4D6024E121047011701B788C
:1017F000284C082B30D00A2B2748284937D00C2BEF
:101800000CBF35225D2212232A60236002600B6028
:10181000234B24491B78244ABBB101230B6013607E
:10182000224B23491B78234A012B26D9042B0FD99D
:10183000082B1ED9102B94BF862387230B601360BF
:101840001D4B01221A7030BC70470B601360E7E734
:1018500084230B601360F3E700F58E200F490830F6
:10186000212213232A60236002600B60D0E7392213
:10187000F7E785230B601360E2E780230B601360BA
:10188000DEE700BF00400740014007403507FF1F6B
:1018900008B003400CB0034008B00B400CB00B4044
:1018A0004E0DFF1F20B0034020B00B403607FF1F36
:1018B00024B0034024B00B404D0DFF1F704700BF04
:1018C00010B584B072B6FEF775FF184A184B194967
:1018D0001160702280211A701A46197013781B0645
:1018E000FCD5154B1C68FEF77FFF62B6134B9C427C
:1018F0009CBF04EB840464002046114C01A90A2219
:1019000000F020F801A92046002311F8012B013333
:101910003AB10A2B20F8022FF7D11623237004B016
:1019200010BD5B00DBB2237004B010BD04000240A8
:1019300000000240000007410C0002407F96980022
:10194000C407FF1FF0B44D1E2E46002400E00134F2
:10195000B0FBF2F302FB1300092800F130078ABF45
:101960003730F8B2C0B206F8010F1846002BEED19E
:101970000A1953704CB1107815F8016F28700133B3
:10198000E01A834202F80169F5DB0846F0BC7047B3
:1019900070B50F4E0F4D761BB61018BF002405D042
:1019A000013455F8043B9847A642F9D10A4E0B4D35
:1019B000761B00F0C1F9B61018BF002406D0013420
:1019C00055F8043B9847A642F9D170BD70BD00BFE1
:1019D000441D0000441D0000501D0000441D000077
:1019E000024B13B1024800F005B870470000000038
:1019F000011A0000002301461A46184600F014B8E8
:101A000038B5074D074C2C1BA41005D0013C55F8E8
:101A1000043D9847002CF9D1BDE8384000F098B952
:101A200000000000000000002DE9F047254C25686B
:101A3000D5F848410646884692469946C4B3606840
:101A40001F2817DC431C76B104EB80050122C5F882
:101A500088A0D4F8881182401143022EC4F888115E
:101A6000C5F808911ED00230636044F82080002041
:101A7000BDE8F087144B03B34FF4C870AFF3008098
:101A80000446D0B1D5F84831002780E88800C5F871
:101A9000484138460123C4F88871C4F88C71002E7F
:101AA000E1D0D1E7D4F88C110A43C4F88C21DAE7ED
:101AB00005F5A674C5F84841C1E74FF0FF30BDE811
:101AC000F08700BF341D0000000000006FF07F03AE
:101AD0000370037813F0800FFBD070474008FE437B
:101AE00040A004404408FE4344A004400018FE43C4
:101AF00000C004403000FE43309004403400FE43F8
:101B0000349004401C18FE431CC004401018FE43CF
:101B100010C004400818FE4308C004400C18FE43DF
:101B20000CC004400C10FE430CB004401010FE43E7
:101B300010B004401810FE4318B004401C10FE43BF
:101B40001CB004401410FE4314B004400418FE43BB
:101B500004C004400010FE4300B004400008FE43EF
:101B600000A004400408FE4304A004400C08FE4307
:101B70000CA004400808FE4308A004401418FE43CB
:101B800014C004401818FE4318C004400410FE435B
:101B900004B004400810FE4308B004406820FE432F
:101BA00068D004401400FE43149004403800FE4303
:101BB000389004403C00FE433C9004404000FE430B
:101BC000409004404808FE4348A004404C08FE43AF
:101BD0004CA004402808FE4328A004402C08FE43E3
:101BE0002CA004406020FE4360D004406420FE43EB
:101BF00064D004402010FE4320B004402410FE4373
:101C000024B004402810FE4328B004402C10FE43AA
:101C10002CB004404400FE43449004407000FE4356
:101C2000709004407400FE43749004406800FE43CA
:101C3000689004405008FE4350A004405808FE43FA
:101C400058A004405C08FE435CA004405408FE43D6
:101C500054A004402018FE4320C004402418FE4332
:101C600024C004401008FE4310A004401408FE43A2
:101C700014A004403818FE4338C004403418FE4312
:101C800034C004403018FE4330C004403C18FE43CA
:101C90003CC004402C18FE432CC004402820FE43C6
:101CA00028D004402C20FE432CD004400020FE43CA
:101CB00000D004400420FE4304D004400820FE432A
:101CC00008D004400C20FE430CD004401020FE43FA
:101CD00010D004401420FE4314D004400015191500
:101CE000000100003807FF1F120000000002000082
:101CF0006407FF1F4300000000030000C007FF1F30
:101D000000000000010309044C07FF1F0000000051
:101D100002030904A807FF1F0000000003030904D1
:101D2000C407FF1F000000000000000000000000CA
:101D300000000000E007FF1FF8B500BFF8BC08BCBA
:101D40009E467047E119000035040000A904000018
:041D5000F8B500BF23
:101D5400FFFFFFFF010A040112011001020000400D
:101D6400C016830477020102030100001803540023
:101D7400650065006E0073007900640075006900F9
:101D84006E006F0009024300020100C03209040022
:101D940000010202010005240010010524010101D3
:101DA40004240206052406000107058203100040EE
:101DB40009040100020A00000007050302400000B4
:101DC400070584024000000016035500530042003A
:101DD4002000530065007200690061006C0000007F
:101DE400040309040C0300000000000000000000CC
:101DF40000000000000000000000000000000000DF
:101E040000000000CC0AFF1F340BFF1F9C0BFF1FB8
:101E140000000000000000000000000000000000BE
:101E240000000000000000000000000000000000AE
:101E3400000000000000000000000000000000009E
:101E4400000000000000000000000000000000008E
:101E5400000000000000000000000000000000007E
:101E6400000000000000000000000000000000006E
:101E7400000000000000000000000000000000005E
:101E8400000000000000000000000000000000004E
:101E9400000000000000000000000000000000003E
:101EA400000000000000000001000000000000002D
:101EB4000E33CDAB34126DE6ECDE05000B000000F2
:101EC400000000000000000000000000000000000E
:101ED40000000000000000000000000000000000FE
:101EE40000000000000000000000000000000000EE
:101EF40000000000000000000000000000000000DE
:00000001FF
