:1000000000000320D1010000B5D5020071D5020027
:1000100071D5020071D5020071D5020071D50200C0
:1000200071D5020071D5020071D50200B5D502006C
:10003000B5D5020071D5020045C8020049C80200CA
:10004000B5D50200B5D50200B5D50200B5D5020080
:10005000B5D50200B5D50200B5D50200B5D5020070
:10006000B5D50200B5D50200B5D50200B5D5020060
:10007000B5D50200B5D50200B5D50200B5D5020050
:10008000B5D50200B5D50200B5D50200B5D5020040
:10009000B5D50200B5D50200B5D50200B5D5020030
:1000A00059C7020065C70200B5D50200B5D50200E8
:1000B000B5D50200B5D50200B5D50200C5E30200F2
:1000C000B5D5020039ED0200B5D50200B5D5020064
:1000D000B5D50200B5D50200B5D50200B5D50200F0
:1000E000B5D50200B5D5020039440000CD45000069
:1000F000F9450000B5D50200B5D50200B5D502001E
:10010000BDCB0200D5CB0200EDCB020005CC020036
:10011000B5D5020095F00200B5D50200B5D50200B4
:10012000B5D50200B5D50200B5D50200B5D502009F
:10013000B5D50200B5D50200B5D50200B5D502008F
:10014000B5D50200B5D50200B5D50200B5D502007F
:10015000B5D50200B5D50200B5D50200E9440000CE
:10016000B5D50200B5D5020071C70200B5D50200B1
:10017000B5D50200B5D50200B5D50200B5D502004F
:10018000B5D50200B5D50200B5D50200B5D502003F
:10019000B5D50200B5D50200B5D50200B5D502002F
:1001A000B5D50200B5D50200B5D50200B5D502001F
:1001B000B5D50200B5D50200B5D50200B5D502000F
:1001C000B5D50200B5D50200B5D50200B5D50200FF
:1001D0005F4B4CF2205210B5DA814DF62812DA81CD
:1001E00000BF00BF2DF0EAF95A4B4FF030621A639E
:1001F000594A9A63594ADA634FF0E0234FF4700288
:10020000C3F8882D03F5E823554A1A60554B9A78B0
:10021000110703D59A7842F008029A70524B53485E
:10022000AA221A70524BDA1C121AC11E22F00302C3
:10023000994288BF00224F492DF0C6F84E4B4F48D7
:10024000DA1C121AC11E22F00302994288BF002252
:10025000002132F053FA4A494A484FF4E8722DF02F
:10026000B3F8494B494A802103F8011B9342FBD163
:100270004FF0E023434AC3F8082D454B8A221A70F9
:10028000A3F5805324225A70A0221A709A799207FB
:10029000FCD59A79D406FCD43E4A937903F00C033A
:1002A000082BFAD1304B60225A70DA78802AFCD1C0
:1002B000384B01221A715D225A719A799006FCD549
:1002C0009A795106FCD5234A33495164002191643F
:1002D000202119702F498B7903F00C030C2BFAD1D4
:1002E0002E4B53602E4A136913F4807303D153616C
:1002F0004FF4A85313614FF0E0232A4A5A610022B9
:100300009A6107221A61284AC3F8202D62B62DF09F
:10031000DFFA234B5B69DA0705D524482DF0CCFAC8
:10032000234B244ADA61244B1B785B0609D5204C09
:10033000204BE2699A4204D11C482DF0BDFA0023FB
:10034000E3612DF041F932F057FA2DF035F8FEE770
:100350000020054000800440823F04000100002B83
:100360000300008500D0074000E007403007FF1F72
:10037000F015FF1FB08903007878FF1FF015FF1FED
:10038000000000000002FF1F00E400E064E400E061
:10039000005006400040064000000602C010070062
:1003A00000D003401FBF0200000020204F8F9E6539
:1003B00000E00340A5C3945A00F00740FFFFFFFF91
:1003C000FFFFFFFFFFFFFFFFFFFFFFFFFFFFFFFF3D
:1003D000FFFFFFFFFFFFFFFFFFFFFFFFFFFFFFFF2D
:1003E000FFFFFFFFFFFFFFFFFFFFFFFFFFFFFFFF1D
:1003F000FFFFFFFFFFFFFFFFFFFFFFFFFFFFFFFF0D
:10040000FFFFFFFFFFFFFFFFFFFFFFFFDEF9FFFF23
:100410000548064B1B1AD90F01EBA301491002D066
:10042000034B03B118477047F015FF1FF015FF1F6E
:100430000000000008B5054B1BB105490548AFF3A6
:100440000080BDE80840FFF7E3BF00BF00000000E8
:10045000F015FF1FA889030000207047704700BFF8
:10046000704700BF103028F0FBB900BF00B583B063
:1004700001220DF10701103028F01EF901280CBFF0
:100480009DF807004FF0FF3003B05DF804FB00BF9C
:10049000103028F0F7BD00BF103028F02DBF00BF8E
:1004A00000B583B00B4601220DF1070110308DF825
:1004B000073028F021FF03B05DF804FB2DE9F0417F
:1004C0000E46154680461AF0FDFA04461AF0F4FA74
:1004D00007461AF0E5FAA4F2BC739BB27F2B01D851
:1004E0000C2F24D90023A8F800301AF0D3FA0746BD
:1004F0001AF0CAFA04461AF0C1FA172F034601D8B7
:100500003B2C0AD9002333801AF0B8FA10F001000E
:1005100018BF64202870BDE8F0813B28F2D8640140
:1005200044EAC720C3F3470303439BB2EBE71F280A
:10053000D8D840EA471040EA43239BB2D3E700BF34
:1005400090F8413013F008030FD0036A0169426A42
:1005500010B44469581A62EB0403B0F1004F73F110
:10056000000304D25DF8044B7047184670476FF0E3
:1005700000405DF8044B70472DE9F0470368344AAA
:100580005B6882B093428DF8071058D1064672B668
:10059000D0F8042562B640F2F6439A4204BF012324
:1005A0004360D0F8043540F2F6494B454ED0D0F8C0
:1005B000085500F108080DF1070A40F2F5470FE071
:1005C000224651462CF000FFD6F808351C44BC42A8
:1005D00088BFA4F2F6444D45C6F8084526D1254605
:1005E000A9EB0504012C08EB050028BF012440EA13
:1005F0000A0323439B07E3D0B0F1005F0DD2031938
:10060000B3F1005F09D34D4508BF2B46DED09DF8FE
:1006100007300370D6F80835D8E7BAF1005FCFD2BB
:100620000AEB0403B3F1005FCAD3ECE70120D6F86C
:1006300004350344C6F8043502B0BDE8F087012252
:100640000DF10701984702B0BDE8F0870020EEE702
:10065000550600002DE9F84F0646884672B6D0F8D8
:10066000043562B6C3F59E630633D0F804759A422A
:1006700040F2F64B88BF0123ABEB070788BF43600E
:10068000974228BF1746002F3FD0D0F8083500F119
:10069000080A002540F2F5490EE022462CF094FEAF
:1006A000D6F8083523444B45254488BFA3F2F643CA
:1006B000AF42C6F8083529D0ABEB03047A1B94424D
:1006C0000AEB030008EB050128BF144640EA0102CB
:1006D00022439207E1D0B0F1005F0ED20219B2F1CD
:1006E000005F0AD3002CDDD001380A1911F8013B54
:1006F00000F8013F9142F9D1D2E7B1F1005FCCD2CD
:100700000A19B2F1005FC8D3ECE73D46D6F80435CC
:1007100028461D44C6F80455BDE8F88F2DE9F0437E
:1007200095B01A4E1A4A1B490096012302A82FF0D1
:1007300069FEDFF86490DFF85880164F022406E067
:1007400000962FF05FFE42F210739C4217D004F126
:10075000FF3C002302AA494606A81FFA8CF5129313
:1007600028F04AFB844623464246394602A8013413
:10077000BCF1000FE4D1284615B0BDE8F08342F289
:100780000F75284615B0BDE8F08300BF9C6E0300CE
:10079000886E0300906E0300701BFF1F10B586B0BB
:1007A000FFF7BCFF42F20F7398420D4B0D4A9ABF00
:1007B0001880044601240C4888BF1C800D210B4B77
:1007C0000190009402A833F049FE094827F0DEFEAC
:1007D00040F2026202A9064828F0FCFA06B010BDF9
:1007E0000A16FF1F906E03009C6E0300886E0300C4
:1007F0002016FF1F054B30B4D3F8804425686D697F
:100800001346AC460246204630BC6047701BFF1FB3
:100810002DE9F04F83B072B69E4DD5F8043562B61F
:10082000C3F59E630633042B9CBF01236B60D5F890
:10083000043540F2F647FE1A052E28BF0526BB42B6
:1008400046D0D5F80835DFF858A2DFF858920024D2
:1008500040F2F5480EE05A462CF0B6FDD5F80835C2
:100860005B4443455C4488BFA3F2F643A642C5F807
:1008700008352ED0A7EB030B321B93450AEB030080
:1008800009EB040128BF934640EA010242EA0B0249
:100890009207E0D0B0F1005F11D200EB0B02B2F191
:1008A000005F0CD3BBF1000FDAD0431E01EB0B004D
:1008B00011F8012B03F8012F8142F9D1CEE7B1F1F4
:1008C000005FC8D201EB0B02B2F1005FC3D3E9E7CE
:1008D0000024D5F80435704ADFF8CCB1DFF8C091B8
:1008E000DFF8C88101922344C5F8043540F2F6468A
:1008F000BBF1000F61D0584633F042FD72B6D5F817
:10090000042562B6B21AD5F80475904288BF012258
:10091000A6EB070788BF6A60874228BF0746002FFB
:1009200045D0D5F80805002440F2F54A03460FE00B
:1009300000922CF049FDD5F80835009A1344534530
:10094000144488BFA3F2F643A742C5F808352FD058
:10095000F21A391B8A4228BF0A4609EB03000BEB47
:10096000040140EA010C4CEA020C1CF0030FDFD03A
:10097000B0F1005F12D200EB020CBCF1005F0DD3AE
:10098000002ADBD0013801EB020C11F8013B00F822
:10099000013F8C45F9D1D5F80835CFE7B1F1005FBB
:1009A000C6D201EB020CBCF1005FC1D3E8E73C46C4
:1009B000D5F804352344C5F80435384B019A9342E1
:1009C00055D072B6D5F8043562B6B34204BF0123E0
:1009D0006B60D5F80435B34259D0D5F808752C248E
:1009E00011E0524641462CF0EFFCD5F80825524460
:1009F00040F2F5439A4288BFA2F2F642B742C5F8E8
:100A0000082529D11746A6EB070ABAF1010F09EB11
:100A1000070028BF4FF0010A40EA080343EA0A032F
:100A20009B07DED0B0F1005F0AD200EB0A03B3F1FE
:100A3000005F05D3B7420DD00470D5F80825D6E77E
:100A4000B8F1005FCDD208EB0A03B3F1005FC8D361
:100A5000B742F1D13A46CAE70121D5F80425019BF6
:100A60000A4453F804BF0193C5F8042540E772B661
:100A7000D5F8043562B60748D5F80435D5F80435FD
:100A8000C5F8043503B0BDE8F04F2CF011B90021D2
:100A9000E3E700BF6016FF1FE86E0300507003001D
:100AA0006816FF1FA06E030054700300A46E0300BD
:100AB000164B174A197803291FD0022992F81501FD
:100AC0000AD140F00F0303F0EF0303F07F0343F07C
:100AD000400382F81531704700F0F70040F007033B
:100AE000032982F81531EED940F0170303F07F0394
:100AF00043F0400382F81531704792F8153123F026
:100B0000090343F0060303F0EF03DEE70816FF1FB7
:100B1000B05CFF1F30B5184C2378012B83B001D097
:100B200003B030BD02232370FFF738FED8B1134D58
:100B3000134A002305F1100028F02CFBD0B1114B13
:100B400000225A60C3F80425C3F80825C3F80C2511
:100B5000C3F80055FFF75CFE0B4A0C4B126801927C
:100B6000019A1A60DCE70523237003B0BDE830402A
:100B7000FFF79EBF0623F7E70816FF1F1016FF1F9B
:100B8000809698006016FF1F0873FF1F5816FF1FFE
:100B9000F8B51B4C1B4E1C4804F2844501273770E6
:100BA0002BF034FC0021FF23284684F8AC3484F871
:100BB000B8142AF0F5FE2846C4F880542AF0F2F959
:100BC00030B9D4F880143A46204629F055FA28B9AD
:100BD00003233370BDE8F840FFF76ABF04F589606E
:100BE00027F0D4FC214604F5896027F0FDFC00289D
:100BF000EED0064B1C60BDE8F840FFF759BF00BFC0
:100C0000701BFF1F0816FF1FBD0400009472FF1F1A
:100C10002DE9F84F72B62E4ED6F8047562B672B64C
:100C2000D6F8043562B69F4228BF1F46002F4CD02D
:100C3000D6F80C15DFF8A490002506F1080A40F25A
:100C4000F64840F2F54B0FE028F056FB844220D1E5
:100C5000D6F80C1521445945254488BFA1F2F64128
:100C6000AF42C6F80C1514D0D6F800C5DCF8003039
:100C7000A8EB01047A1B5B68944228BF14464B45DD
:100C80000CF1100022465144DED060469847844261
:100C9000DED072B6D6F804355B1BC6F8043562B6F2
:100CA0000C4828F0B7FA002200230A4827F0F0FD8C
:100CB000084827F06BFC074828F0E4F9064B0122AE
:100CC0001A70BDE8F84FFFF7F3BE3D46E1E700BFFD
:100CD0006016FF1F2016FF1F0816FF1F9904000053
:100CE000034B1B78022B00D07047FFF791BF00BF6A
:100CF0000816FF1F2DE9F047DFF8908198F8413082
:100D00009CB0064623B1594B1B78022B00F0A480FF
:100D1000574B019342F20F73994228BF1946554A27
:100D2000554B00914FF000090D2106A833F096FBBA
:100D30005249CDF858904B4606AA0AA828F05CF80C
:100D4000074618B938461CB0BDE8F0874C480A90F1
:100D50004FF47A704B4649490C9006AA0EA8CDF87C
:100D60002C908DF834908DF86990ADF86A9028F049
:100D700043F80B9BC8F804300C9BC8F808300EAC45
:100D80009DF8343088F80C300FCCDFF8FCA0AAE8CE
:100D90000F000FCCAAE80F000FCCAAE80F002368C1
:100DA000CAF80030CC4606AD06F1FF394FF0010E0F
:100DB0000BE02B7889F801300EF1010E0CF1010CDB
:100DC0005FFA8EFE013509F10109BCF1070F5FFAE8
:100DD0008CF3EED9082BEFD02B7889F80030BEF1D8
:100DE0000C0FE9D1274B5B88002B3AD0002401235C
:100DF0000AAA0DF11601F37234732348ADF81640B8
:100E0000ADF8284027F0D8FBBDF82830B3731B0A93
:100E1000F373BDF8163033741B0A737474731A4875
:100E200027F0BEFB030AB074F374030C000E707558
:100E3000B475F47534767476B476F4763375D8F880
:100E400020303377190A1A0C38461B0E7177B277A7
:100E5000F3771CB0BDE8F0870391FFF7D9FE039943
:100E600056E7094828F0D6F9C0E700BF0816FF1F6B
:100E70009C6E0300906E0300886E0300701BFF1FC2
:100E8000B46E0300B05CFF1F2016FF1F1016FF1F7B
:100E9000F0B5334C94F8753013F0040683B011D0DC
:100EA000304A314812680192019994F87620A0FBEB
:100EB000010194F8770042EA0022B2EB911F2CBFA7
:100EC0000126002613F0080205D0284994F878205E
:100ED00009798A4229D9002513F010020DD113F0A7
:100EE000C00F29D19EB995B9214B1B787BB9214BF5
:100EF0001B78022B31D003B0F0BD1C4A13F0C00F99
:100F000092F8067125D116B90DB9002FECD094F8DE
:100F1000743013F00C0FEED1164B1B78022BEAD174
:100F200003B0BDE8F040FFF773BE94F879208A4221
:100F300034BF00250125CFE717460F4B18782CF05A
:100F400079FD0028DFD194F8743013F00C0FD2D162
:100F5000E2E7003F18BF0127EFE7FFF759FED6E7AA
:100F60000C59FF1F0873FF1FD34D6210B05CFF1FA9
:100F70005C16FF1F0816FF1F3E66FF1F10B5374C9B
:100F800094F8743013F00C0F82B00BD094F87530D5
:100F9000590709D41A0742D5314A1278012A30D0AC
:100FA000DA0647D502B010BD2D4A1278012AF1D1D8
:100FB0002C4A2D4812680192019994F87620A0FBE2
:100FC000010194F8770042EA0022B2EB911F3AD275
:100FD000180716D4D9062DD5244A92F80631002BCD
:100FE00036D194F8753013F0C00FDBD0204B187851
:100FF0002CF020FD0028D5D102B0BDE81040FFF74D
:1010000089BD1A4A94F87810137999420ED894F849
:10101000791099420AD3FFF77DFD94F87530D80610
:1010200008D50F4B1B78012BBCD1D5E794F8753050
:10103000D906D2D413F0C00FB4D0094B1B78012BC2
:10104000D4D002B010BDFFF765FD94F87530A1E76C
:10105000FFF760FD94F87530ECE700BF0C59FF1FF7
:101060000816FF1F0873FF1FD34D6210B05CFF1FEF
:101070003E66FF1F2DE9F04FAE4B1B78012B83B06E
:1010800006D0022B0AD003B0BDE8F04FFFF710BD29
:10109000FFF774FFA74B1B78022BF4D1A64BA74A8E
:1010A0001B6801931268019BA549A64C9B1AA1FBE2
:1010B00003214FEA911A4FF47A725146204602FBFF
:1010C0001A3A00230A222BF00BFE2E238DF8033050
:1010D00072B6D4F8042562B640F2F6439A4204BFD1
:1010E00001236360D4F8043540F2F6494B4500F023
:1010F0007782D4F80875944D0DF1030840F2F54B52
:101100000FE0324641462CF05FF9D4F808351E4412
:101110005E4588BFA6F2F6464F45C4F8086525D15E
:101120003746A9EB0706012E05EB070028BF01266D
:1011300040EA080333439907E3D0B0F1005F0CD2D3
:101140008319B3F1005F08D34F4500F03D819DF84E
:1011500003300370D4F80835D9E7B8F1005FD0D276
:1011600008EB0603B3F1005FCBD3EDE70122D4F81F
:101170000435BAF1630F1344C4F8043540F22681F4
:1011800000230A2251466F482BF0AAFD2C238DF82C
:10119000033072B6D4F8042562B640F2F6439A42A0
:1011A00004BF01236360D4F8043540F2F647BB4224
:1011B00000F02A82D4F80865634D0DF1030840F26F
:1011C000F5490FE0524641462CF0FEF8D4F80835B8
:1011D00053444B4588BFA3F2F643BE42C4F80835DA
:1011E00029D11E46A7EB060ABAF1010F05EB06004E
:1011F00028BF4FF0010A40EA080343EA0A039A07AE
:10120000E0D0B0F1005F0DD200EB0A03B3F1005F54
:1012100008D3BE4200F085819DF803300370D4F8F6
:101220000835D5E7B8F1005FCCD208EB0A03B3F17B
:10123000005FC7D3EDE70122D4F80435DFF80C8155
:101240001344C4F804353F4B4FF0000903F108077D
:101250001FFA89F017F042FEFDEEC07AF8EEE77A49
:10126000F4EE407AF1EE10FA72D1BCEEC00A3548C5
:1012700010EE103A99B22BF013FDB9F15A0F74D059
:1012800072B6D4F8042562B640F2F6439A4204BF1F
:1012900001236360D4F8043540F2F64A534500F068
:1012A0009180D4F808552C2611E05A4641462CF07E
:1012B0008BF8D4F808255A4440F2F5439A4288BF87
:1012C000A2F2F6425545C4F8082529D11546AAEBE5
:1012D000050BBBF1010F07EB050028BF4FF0010B19
:1012E00040EA080343EA0B039B07DED0B0F1005F3E
:1012F0000AD200EB0B03B3F1005F05D355450DD0C7
:101300000670D4F80825D6E7B8F1005FCDD208EB17
:101310000B03B3F1005FC8D35545F1D12A46CAE7A4
:101320000122D4F80435134409F10109C4F8043545
:101330008EE700BF0816FF1F0873FF1F5816FF1F18
:10134000D34D62106016FF1F6816FF1FA46E0300C6
:1013500010EE100A2EF0C8FE41EC100BB24802212C
:101360002BF0CAFCB9F15A0F8AD172B6D4F8043501
:1013700062B6AD48D4F80435D4F80435C4F8043561
:101380002BF096FC72B6D4F8043562B6B3F5007F44
:1013900080F08280A54B1B78022B66D0A44901F116
:1013A00010000FC8121A63EB0103B2F5007F73F14E
:1013B0000003BFF468AEFFF7ADFB03B0BDE8F04F2C
:1013C000FFF776BB0022ACE73B46A0E672B6D4F846
:1013D000042562B640F2F6439A4204BF01236360DB
:1013E000D4F8043540F2F64B5B4500F01381914F81
:1013F000D4F80895904D39464FF0300812E0324647
:101400002BF0E2FFD4F808358A491E4440F2F54338
:101410009E4288BFA6F2F646D945C4F8086540F05A
:101420008280B146ABEB0906012E05EB090028BF0F
:10143000012640EA070333439A07E0D0B0F1005F8A
:101440000BD28319B3F1005F07D3D94500F0DA80DE
:1014500080F80080D4F80835D7E7B7F1005FCED226
:10146000BB19B3F1005FCAD3EFE7FFF711FD704975
:101470008A690869CB694969121A63EB0103B2F5FD
:10148000007F73F10003BFF4FEAD684B1B78022BA5
:1014900091D1FFF7BDFB8EE7684827F09FF8002841
:1014A0007FF478AF72B6D4F8043562B6B3F5007F36
:1014B000994628BF4FF40079002B00F0AD805E4DB7
:1014C000D4F80C35074640F2F64A40F2F54BA846F0
:1014D00011E0324627F010FF864240F08380D4F8B6
:1014E0000C3533445B45374488BFA3F2F643B94516
:1014F000C4F80C3576D0D4F80025514DAAEB030C76
:1015000008EB03011368A9EB07065B68664528BF73
:101510006646AB4202F11000DBD0104632469847D7
:10152000DAE7334654E60123D4F80425BAF1090F6B
:101530001344C4F804353FF623AE72B6D4F804253C
:1015400062B640F2F6439A4204BF01236360D4F8C6
:10155000043540F2F64B5B455AD0364FD4F8089527
:10156000354D39464FF0300811E032462BF02CFF54
:10157000D4F808352F491E4440F2F5439E4288BFF7
:10158000A6F2F646D945C4F8086522D1B146ABEBC0
:101590000906012E05EB090028BF012640EA0703D2
:1015A00033439B07E1D0B0F1005F0AD28319B3F156
:1015B000005F06D3D94529D080F80080D4F80835DB
:1015C000D9E7B7F1005FD0D2BB19B3F1005FCCD33C
:1015D000F0E70122D4F804351344C4F80435CFE50C
:1015E0000022C4E5BAB272B6D4F80435DB1BC4F8E5
:1015F000043562B6B2F5007F3FF4CCAE0B4A072348
:101600001370CBE64B4600E7002215E64B46B2E7E7
:101610000022DFE7002387E772B6D4F80435C4F868
:10162000043562B6EAE700BF6016FF1F0816FF1F09
:101630001016FF1FA86E03006816FF1F2016FF1F5D
:101640009904000008B50B4B1B78022B00D008BD95
:10165000094826F0C3FF0028F9D1084BD3F840040D
:101660000368DB6898470028F1D1BDE808400248CC
:1016700027F008BD0816FF1F2016FF1F701BFF1F55
:10168000F0B5464E464C96F81531464887B004F200
:10169000844523F0040386F8153126F077FF4FF0D8
:1016A000000128462AF07CF92846C4F8805429F025
:1016B00079FC002859D194F8103284F84404DB07EF
:1016C0004DD4D4F8800400254FF0FF3384F8105235
:1016D000C4F81C3200284FD00368DB6B9847002801
:1016E00048D0D4F8800400283FD003681B6C98478A
:1016F0000746002848D1D4F88004002835D0036874
:1017000001215B6C984780B33B46274AD4F880148C
:1017100001A827F0F5FFD4F8803405462BB31A68EA
:1017200018463946536C9847F8B1F5B1D4F880148F
:101730001B48012228F0A0FCB8B11C4826F026FF67
:10174000174901F5896026F04FFF70B196F8153101
:10175000174A43F00403146086F8153108E004F5D5
:1017600004702AF0FFFD0028ABD1124B08221A703A
:1017700007B0F0BDD4F880040B4A0146002301A84D
:1017800027F0BEFF0546D0E72B46074AD4F8801461
:1017900001A827F0B5FF0546C7E700BFB05CFF1FF3
:1017A000701BFF1F2016FF1F901DFF1FB81FFF1F7C
:1017B0009472FF1F0816FF1F10B592B02E248DF8EB
:1017C00007308DF8040013460846042212498DF8AC
:1017D00008408DF8050000248DF806300DF1090051
:1017E0000E4B00932BF0F0FD0D49109423466A46F2
:1017F00004A827F001FB08B912B010BD08491094E5
:1018000001236A4604A827F0F7FA0028F4D004A8B8
:1018100027F044FB12B010BD9C6E03005350445F90
:10182000701BFF1F024BD3F880040368DB69184765
:10183000701BFF1F18481949194A38B50024194B65
:10184000C0F884142925184980F89D54C0F89824BC
:10185000C0F89034154AC0F84444C0F87844C0F841
:101860008044A0F88C4480F8A14480F8A84480F813
:10187000B8442EF0CFFA0E4B0E4A0F490F48DC60E9
:101880004FF47A751C64C2E900149D605C601860B6
:10189000C2F8004538BD00BF701BFF1FC47E0300A7
:1018A00003200038547E0300610400003408FF1F49
:1018B0001016FF1F6016FF1FD86E0300B46E0300E2
:1018C0006FF4007C00EB0C039AB2B2F58C7FC0F091
:1018D0002F81A0F58072012A40F22A81B0F5467F5F
:1018E00070B500F23C81B0F5007F40F2288140F2F3
:1018F0001712934200F21A81DFE813F0A104920458
:101900007F04750466045304AD029E02400436044D
:10191000270414040404F503C903BF03B0039D03A3
:101920009303840371036703BE04AB041801180119
:1019300018011801180118011801180118011801DF
:1019400018011801180118011801180118011801CF
:1019500018011801180118011801180118011801BF
:1019600018011801180118011801180118011801AF
:10197000180118011801180118011801180118019F
:10198000180118011801180118011801180118018F
:10199000180118011801180118011801180118017F
:1019A000180118011801180118011801180118016F
:1019B000180118011801180118011801180118015F
:1019C000180118011801180118011801180118014F
:1019D000180118011801180118011801180118013F
:1019E000180118011801180118011801180118012F
:1019F000180118011801180118011801180118011F
:101A0000180118011801180118011801180118010E
:101A100018011801180118011801180118011801FE
:101A200018011801180118011801180118011801EE
:101A300018011801180118011801180118011801DE
:101A400018011801180118011801180118011801CE
:101A500018011801180118011801180118011801BE
:101A600018011801180118011801180118011801AE
:101A7000180118011801180118011801180118019E
:101A8000180118011801180118011801180118018E
:101A9000180118011801180118011801180118017E
:101AA000180118011801180118011801180118016E
:101AB000180118011801180118011801180118015E
:101AC000180118011801180118011801180118014E
:101AD000180118011801180118011801180118013E
:101AE000180118011801180118011801180118012E
:101AF0001801180118011801180118015D034E039F
:101B00003B03310322030F03EB03DC03FC02F2026D
:101B1000E302D002C602B7020802FF018602730286
:101B200069025A0247023D022E021B02002070BDCC
:101B3000BD4A5288002A3FF4D1AE00207047B0F56C
:101B4000807F32D040F201139842EFD1B64A92F82A
:101B5000B23043F0020382F8B230012070BD49F682
:101B600006139842E2D8B0F5194F0AD3A0F51940F0
:101B70000138052800F2A283DFE800F095806B4D64
:101B800045AA43F20123984200F0858343F20133D2
:101B9000984203D1FFF774FD012070BDB0F5485F96
:101BA000C4D102F057FD012070BD9F4A92F8B230B7
:101BB00023F0020382F8B23019F07CFE19F07EFFA8
:101BC0001AF080F81AF082F91AF084FA1AF086FBFB
:101BD0001AF088FC1AF08AFD19F0C0F819F064F9BF
:101BE00019F008FA19F0ACFA19F012FB19F03AFBE7
:101BF00019F098FB19F02AFC8C498D4A00230B70D0
:101C00001370012070BD884CB4F80031002B40F0F7
:101C10004583012070BD844CB4F80031002BF8D00E
:101C2000844A618842F2107000FB03F3B3FBF1F3C6
:101C3000C3F30721012082F8703082F8711021F07F
:101C400035FF94F8DC3043F0080384F8DC300120E1
:101C500070BD754CB4F80031002BDAD0754A61883C
:101C600042F2107000FB03F3B3FBF1F3C3F307215F
:101C7000012082F86E3082F86F10E0E76A4CB4F809
:101C80000031002BC5D06B4A618842F2107000FB16
:101C900003F3B3FBF1F3C3F30721012082F86C30A7
:101CA00082F86D10CBE7604CB4F80031002BB0D057
:101CB000604A618842F2107000FB03F3B3FBF1F35A
:101CC000C3F30721012082F86A3082F86B10B6E76F
:101CD000554CB4F80031002B9BD0564A618842F233
:101CE000107000FB03F3B3FBF1F3C3F307210120F2
:101CF00082F8743082F87510A1E74B4B93F8B2303C
:101D00009A0786D51AF064FA012070BD464B93F805
:101D1000B23013F0020F464B1EBF1A7842F0100289
:101D20001A701B78D9063FF574AF1AF0D3F9012069
:101D300070BD3D4B93F8B23013F0020F3C4B1EBF09
:101D40001A7842F080021A701B781B063FF561AFCB
:101D50001AF0CCFC012070BD334B93F8B2309A07D7
:101D60007FF557AF1AF0C2FC314A137803F07F03B6
:101D70001370012070BD2C4B93F8B23099077FF59A
:101D800048AF1AF02DFC012070BD274B93F8B230FC
:101D900013F0020F264B1EBF1A7842F040021A7051
:101DA0001B7858063FF535AF1AF09CFB012070BD3B
:101DB0001D4B93F8B2309C077FF52BAF1AF092FBC6
:101DC0001B4A137803F0BF031370012070BD164B3C
:101DD00093F8B2309D077FF51CAF1AF0FDFA012091
:101DE00070BD114B93F8B23013F0020F104B1EBFB1
:101DF0001A7842F020021A701B789E063FF509AF50
:101E00001AF06CFA012070BD074B93F8B2309B07B3
:101E10007FF5FFAE1AF062FA054A137803F0DF038C
:101E20001370012070BD00BFB05CFF1F9954FF1FED
:101E30009854FF1F3C5AFF1FB74B93F8B2309D07D1
:101E40007FF5E7AE19F0D6F8B44A137803F0FB0338
:101E50001370012070BDB04B93F8B2309E077FF530
:101E6000D8AE19F075F8012070BDAB4B93F8B230C5
:101E700098077FF5CEAE1AF02DF9A94A137803F032
:101E8000EF031370012070BDA34B93F8B2309C0791
:101E90007FF5BFAE1AF098F8012070BD9E4B93F805
:101EA000B23013F0020F9E4B1EBF1A7842F00802A8
:101EB0001A701B781D073FF5ACAE1AF007F8012029
:101EC00070BD954B93F8B2309E077FF5A2AE19F026
:101ED000FDFF934A137803F0F7031370012070BDE0
:101EE0008D4B93F8B2309B077FF593AE19F068FFE6
:101EF000012070BD884B93F8B23013F0020F884B6D
:101F00001EBF1A7842F004021A701B785A073FF578
:101F100080AE19F0D7FE012070BD7F4B93F8B23030
:101F200013F0020F7E4B1EBF1A7842F002021A70A5
:101F30001B789C073FF56DAE19F0C0FD012070BD08
:101F4000754B93F8B2309D077FF563AE19F0B6FD7F
:101F5000734A137803F0FD031370012070BD6E4BBC
:101F600093F8B2309E077FF554AE19F021FD0120A1
:101F700070BD694B93F8B23013F0020F684B1EBF6F
:101F80001A7842F001021A701B78DB073FF541AE68
:101F900019F090FC012070BD5F4B93F8B2309A07A6
:101FA0007FF537AE19F086FC5D4A137803F0FE0327
:101FB0001370012070BD584B93F8B23099077FF52C
:101FC00028AE19F0F1FB012070BD534B93F8B230ED
:101FD0009D077FF51EAE19F0EFF9012070BD4E4B45
:101FE00093F8B23013F0020F4C4B1EBF1A7842F038
:101FF00040021A701B785E063FF50BAE19F092F99D
:10200000012070BD444B93F8B2309B077FF501AEC1
:1020100019F088F9414A137803F0BF0313700120C7
:1020200070BD3D4B93F8B2309A077FF5F2AD19F0D1
:102030002FF9012070BD384B93F8B23013F0020F26
:10204000364B1EBF1A7842F020021A701B78990690
:102050003FF5DFAD19F006F9012070BD2E4B93F866
:10206000B23098077FF5D5AD19F0FCF82B4A1378FC
:1020700003F0DF031370012070BD274B93F8B230DB
:102080009C077FF5C6AD19F0D9F8012070BD224B31
:1020900093F8B23013F0020F204B1EBF1A7842F0B3
:1020A00010021A701B78DD063FF5B3AD19F0B0F8D9
:1020B000012070BD184B93F8B23099077FF5A9AD98
:1020C00019F000FE164A137803F0FB031370012089
:1020D00070BD114B93F8B23098077FF59AAD19F0A7
:1020E0006BFD012070BD0C4B93F8B2309E077FF55D
:1020F00090AD19F08DF8094A137803F0EF031370CF
:10210000012070BD044B93F8B2309B077FF581AD81
:1021100019F06AF8012070BDB05CFF1F9954FF1FD1
:102120009854FF1F854B93F8B23013F0020F844B85
:102130001EBF1A7842F008021A701B781A073FF582
:1021400068AD18F0FDFF012070BD7C4B93F8B230F4
:1021500099077FF55EAD18F0F3FF794A137803F025
:10216000F7031370012070BD744B93F8B2309807D9
:102170007FF54FAD18F092FF012070BD6F4B93F8C3
:10218000B23013F0020F6E4B1EBF1A7842F00402F9
:102190001A701B785C073FF53CAD18F02BFF01204F
:1021A00070BD664B93F8B23013F0020F644B1EBF44
:1021B0001A7842F002021A701B789B073FF529AD8E
:1021C00018F072FE012070BD5C4B93F8B2309A0794
:1021D0007FF51FAD18F068FE594A137803F0FD0330
:1021E0001370012070BD554B93F8B23099077FF5FD
:1021F00010AD18F007FE012070BD504B93F8B230BF
:1022000013F0020F4E4B1EBF1A7842F001021A70F3
:102210001B78D8073FF5FDAC18F0A0FD012070BD7C
:10222000464B93F8B2309C077FF5F3AC18F096FD5F
:10223000434A137803F0FE031370012070BD3F4B37
:1022400093F8B2309D077FF5E4AC18F035FD01201E
:1022500070BD3A4B93F8B23013F0020F384B1EBFEB
:102260001A7842F080021A701B7818063FF5D1AC3C
:1022700019F0ECF8012070BD304B93F8B2309C0798
:102280007FF5C7AC19F0E2F82D4A137803F07F030D
:102290001370012070BD02F0DFF9BAE4294A6188A9
:1022A00042F2107000FB03F3B3FBF1F3C3F3072119
:1022B000012082F8723082F87310C0E4214C94F847
:1022C000660000F00306012E1BD000201CF0FEFC6F
:1022D000024600283FF49DAC01201B4BB3FBF2F3F8
:1022E000C3F3072284F8673084F8682021F0DEFB0E
:1022F000124A92F8DC3043F0080382F8DC30012007
:1023000070BD94F87E300D4D104A1B095C33304689
:1023100035F81330A2FB0323C3F347125B0B84F899
:10232000683084F8672021F0C1FB95F8DC3043F079
:10233000080385F8DC30304670BD00BFB05CFF1F7D
:102340009954FF1F3C5AFF1F008793038988888890
:102350002DE9F0474E4ADFF868A110784D4B9AF806
:102360000020DFF860914C4F53F83220DFF858C15D
:1023700053F83030494C4A49DFF85081494EC9F88A
:102380000030012500233A60474A88F80050357034
:102390008CF8003023700B70444C137029462BF0DE
:1023A00057FB9AF8000029462BF052FB204625F0F7
:1023B00085FFE37A2BB372B6E37AD80708D54FF0DE
:1023C000E020E168D0F880210A40C0F88021E26175
:1023D000990708D54FF0E0202169D0F884210A4000
:1023E000C0F8842122625A0708D54FF0E0206169C5
:1023F000D0F888210A40C0F8882162621B073DD4CA
:1024000062B623682A4AD968914207D029491960DF
:10241000DA6002F180421A61274A1A60D9F8002076
:1024200098F80010137823EA010313702268234BF5
:102430004FF00041D1625363D36A002BFCDA936BF7
:10244000D9F8002098F8001013780B4313703A68FD
:102450003178137823EA010313702268174B4FF089
:102460000041D1625363D36A002BFCDA3968936B65
:1024700032780B7813430B70BDE8F0874FF0E02201
:10248000A169D2F88C310B40C2F88C31A362B7E756
:102490003866FF1FFC8203004020FF1F3320FF1F10
:1024A0003020FF1F3C20FF1F3120FF1FD471FF1F72
:1024B0000000023801403F0000003F80001F001074
:1024C0003966FF1F3820FF1F3220FF1F3420FF1FF7
:1024D0002DE9F84F364CE27812F001035FD0354B0E
:1024E0001B78002B5BD03449087800285BD0334D33
:1024F000334E95F8161156F83330DFF8E8C0DFF8A0
:10250000E8E0DFF8E8A0DFF8E890DFF8E880DFF83F
:10251000E8B02C4F21F07F0185F816112A4903F508
:1025200000730B60002329498CF800308EF80030CE
:102530008AF8003089F8003088F8003001238BF8E1
:1025400000300B7056F83010396012F0020118BFDD
:1025500019462BF039FA95F81631E27823F0020388
:1025600012F0100085F8163116D0194B187898B172
:10257000184B56F830101960174B012112F0200249
:10258000197008BF11462BF01FFA95F8163123F089
:102590004003012085F81631104A01231070104ABB
:1025A0001370BDE8F88F0E4A03461370BDE8F88F2C
:1025B0008C59FF1F1266FF1F1066FF1FB05CFF1FC4
:1025C000FC8203006420FF1F7420FF1F6220FF1F96
:1025D0001166FF1F6C20FF1F6820FF1F5F20FF1F79
:1025E0005D20FF1F5C20FF1F5E20FF1F9A21FF1F41
:1025F0006020FF1F6120FF1F7020FF1F38B5714B47
:102600001B78002B67D0704C94F8773013F00103DF
:1026100062D16E496E4A6F4D0B7013706B7A626BAC
:10262000A3F12801914266DA94F81631617FAA7904
:1026300043F02003914284F8163169D9664A43F089
:102640000803002184F816311170EA79618802EBE1
:102650008202B1EB420F03DB21792A7A91426BD9D6
:102660005E4A43F00403002184F8163111705C4A7D
:10267000E978126810785B4A11F0040F127867D07D
:10268000104267D103F0FE02574822F0100302788F
:1026900084F8163172B1554B11F02001187818BF2B
:1026A00001212BF091F994F81631E97823F04003D9
:1026B00084F816314E4B11F00201187818BF012131
:1026C0002BF082F994F816314A4A23F002030021D4
:1026D00084F81631117038BD3C4A3E4D1378697B41
:1026E000994226D83A4B01221A706B7A626BA3F199
:1026F0002801914298DB293B9A4294F81631617F78
:10270000AA79BCBF03F0DF0384F81631914295D853
:1027100013F0080230490AD00A78E87A904295BF4F
:1027200003F0F703013284F816310A708DE70A705E
:102730008BE70133137071E72849A87B0A78904230
:1027400095BF03F0FB03013284F816310A708EE75F
:10275000104297D11E48007843F00102002893D020
:1027600013F02C0090D143F0110384F816311E4B66
:102770001B786BB11D4B8A064CBF014601211878AE
:102780002BF022F994F8163143F0400384F8163107
:10279000184A297B1378994211D8EB7813F0020F6D
:1027A000134B18BF0021187808BF01212BF00CF93A
:1027B00094F8163143F0020384F8163138BD013322
:1027C000137038BD5D20FF1FB05CFF1F5C20FF1F32
:1027D0009A21FF1F8C59FF1F6120FF1F5E20FF1FE2
:1027E0007420FF1F7020FF1F5F20FF1F1166FF1F57
:1027F0001066FF1F6020FF1F10B51A4B1A4918788A
:102800001A4C1B4B51F83010196094F87830194A63
:1028100001210B40117008BF19462BF0D5F8164B5B
:10282000164993F80921002002F0F70283F80921E4
:1028300083F80701124B4A6993F8463003F01803F6
:1028400022F04002102B4A6100D010BD94F87B208A
:102850000C490D4C0D4B20609201B3FBF2F30B8041
:1028600010BD00BF2266FF1FFC8203003C5BFF1F00
:10287000D020FF1FCC20FF1FB05CFF1F00800B404B
:102880003C5AFF1FD820FF1FDC20FF1F40420F00D3
:1028900038B56F4B93F8463003F01802082A31D050
:1028A000102A00D038BD6B4CDD0794F8772073D523
:1028B00090077DD513F002037AD194F80921664977
:1028C00084F8073102F0F70284F809214B6923F0FC
:1028D00040034B61614B93F8781011F0010100F057
:1028E000AD805F4B012118782BF06EF894F8093118
:1028F000594A03F0F70384F80931536923F0400380
:10290000536138BD5549534C91F8792091F87AC0FC
:10291000DD07A2F1280214D494F87700C00710D480
:1029200091F878104E4B11F00101187818BF012171
:102930002BF04AF894F8093103F0F70384F80931D1
:1029400038BD606B904218DB94F87720920701D570
:102950009B07E5D591F8783013F0010F404B18BF75
:102960000021187808BF01212BF02EF894F80931C6
:1029700043F0080384F8093138BD3A4DA2EB0C024C
:1029800095F803C01CF0080F03D094F81651ED061B
:10299000DAD49042C4DD38BD12F0010188D194F838
:1029A000093184F8071103F0F70384F8093191E73E
:1029B000616B2D48283122F045FD2A4BDA7811074A
:1029C000C0B203D594F81621D2063CD4274B284A2E
:1029D0001B88284984F8070100FB03F36433A2FB3A
:1029E0000323C3F38F130B6000283FF473AF1A4A1D
:1029F000536943F04003536194F80931C82843F008
:102A0000080384F809317FF44DAF144B93F8783004
:102A100013F0010F124B18BF0021187808BF0121D5
:102A20002AF0D2FF94F809310B4A43F0080384F8E6
:102A30000931536923F04003536138BD084B1878BE
:102A40002AF0C2FF52E75B7C984238BF1846BDE7C8
:102A50003C5AFF1FB05CFF1F00800B403C5BFF1F18
:102A60002266FF1F8C59FF1F085EFF1FD820FF1F23
:102A70001F85EB51DC20FF1FF0B58649864A097897
:102A8000864B52F831108648196086490078864D89
:102A900001230B70854952F830000860844885494D
:102AA00000780B70844952F83000086083498448EC
:102AB0000B7095F8501095F84B4001F03F0183B032
:102AC00052F8311001607F497F480B7095F856101D
:102AD00001F03F0152F8311001607C49A0080B70F1
:102AE00052F830207A4902F500720A60794A137070
:102AF00095F84E30FF2B04BF6FF3010485F84B406F
:102B000095F84B309C0707D095F8501011F0400114
:102B100018BF02212AF09CFF6F4B704E93F82B20B8
:102B200093F83F106E4820F0A1FE96F90D30002B6F
:102B30006FDB01236A481A46194620F073FE33788A
:102B4000684C98062CD495F89530D90719D594F887
:102B500009316549654D96F82E20654803F0FE035E
:102B600084F8093100230B6062492B6084F8083136
:102B70009201614BB3FBF2F303804B6943F04003D6
:102B80004B615E495E4A0023A4F8B4300B70C4F870
:102B9000F830C4F81031137084F8E03003B0F0BDA1
:102BA000B379534896F82E10534A03F003030027D5
:102BB000022B4FEA8111A4F8F270B2FBF1F2A4F8F3
:102BC0000A7102802FD0494B4A4800221A60464BB6
:102BD0001A6041694B4B41F0400193F87E304161EE
:102BE00094F8091101F0FD0184F8091194F8091114
:102BF00001F0FB0184F8091143490A70626B283B1C
:102C00009A4202DB414B01221A7033789B06B8D4FA
:102C100099E796F83B3096F83A2096F83910304804
:102C200020F000FE8BE795F8AC2095F8AB10384803
:102C300020F0A0FC95F88130009795F8802095F859
:102C40007F10334820F01CFC3148212120F070FC1B
:102C50002F48012120F0AEFC95F8AD305A06B2D5D0
:102C600095F8AC2095F8AB102A4820F083FC95F835
:102C70008130009795F8802095F87F10254820F046
:102C8000FFFB2448212120F053FC2248012120F0A1
:102C900091FC98E71566FF1FFC820300BC20FF1F14
:102CA0005866FF1FB820FF1F4C58FF1FFC20FF1F56
:102CB0005966FF1FFA20FF1F4821FF1F4521FF1FF4
:102CC000EC20FF1FE820FF1FF420FF1FF020FF1F54
:102CD000E420FF1FE020FF1F3C5AFF1F3C5BFF1F4B
:102CE0007C20FF1FB05CFF1F4820FF1F4420FF1FF8
:102CF0009821FF1F0090034040420F007820FF1FE3
:102D00005121FF1FBC5AFF1F9021FF1F5221FF1F9F
:102D10005421FF1F0821FF1F30B5BC4BBC491B7B52
:102D200013F0010F91F8993085B003F0300311D101
:102D3000102B23D0202B11D1B64C94F80331013B3A
:102D4000052B0BD8DFE813F076016C0157014D011C
:102D500043013901102B03D0202B1AD005B030BD10
:102D6000AC4C94F80331013B052BF7D8DFE813F0A6
:102D7000F100E100D100C100B1008F00A54C94F832
:102D80000331013B052BE9D8DFE803F071615141C4
:102D90003111A04C94F80331013B052BDED8DFE85C
:102DA00013F006010001FA00F400EE00E800637F72
:102DB0009948B4F9022002925B00CDE9000391F832
:102DC000A150A0F11003A0F150025838082122F0C0
:102DD0009DFD10FB05F39B009BB242F210729342E3
:102DE00001D942F21073A4F8B43005B030BD637F4E
:102DF0008948B4F9022002925B00CDE90003A0F1FA
:102E00005002A0F1100391F8A0505838DEE7637F1C
:102E10008148B4F9022002925B00CDE90003A0F1E1
:102E20005002A0F1100391F89F505838CEE7637F0D
:102E30007948B4F9022002925B00CDE90003A0F1C9
:102E40005002A0F1100391F89E505838BEE7637FFE
:102E50007148B4F9022002925B00CDE90003A0F1B1
:102E60005002A0F1100391F89D505838AEE7637FEF
:102E70006948B4F9022002925B00CDE90003A0F199
:102E80005002A0F1100391F89C5058389EE7637FE0
:102E90006148B4F9022002925B00CDE9000391F889
:102EA000A150A0F11003A0F150025838082122F0DF
:102EB0002DFD5A4A15FB00F3A2FB03235B099B007F
:102EC0009BB2B3F5007F57D340F2FF13A4F8B030A4
:102ED00044E7637F5048B4F9022002925B00CDE9D9
:102EE0000003A0F15002A0F1100391F8A05058384F
:102EF000DCE7637F4848B4F9022002925B00CDE929
:102F00000003A0F15002A0F1100391F89F5058382F
:102F1000CCE7637F4048B4F9022002925B00CDE920
:102F20000003A0F15002A0F1100391F89E50583810
:102F3000BCE7637F3848B4F9022002925B00CDE918
:102F40000003A0F15002A0F1100391F89D505838F1
:102F5000ACE7637F3048B4F9022002925B00CDE910
:102F60000003A0F15002A0F1100391F89C505838D2
:102F70009CE791F8A1305B00A4F8B030EEE691F840
:102F8000A0305B00A4F8B030E8E691F89F305B0019
:102F9000A4F8B030E2E691F89E305B00A4F8B030BF
:102FA000DCE691F89D305B00A4F8B030D6E691F8ED
:102FB0009C305B00A4F8B030D0E691F8A13003EB70
:102FC000830303EB8303DB00A4F8B430C6E691F877
:102FD000A03003EB830303EB8303DB00A4F8B430DE
:102FE000BCE691F89F3003EB830303EB8303DB0024
:102FF000A4F8B430B2E691F89E3003EB830303EB00
:103000008303DB00A4F8B430A8E600BFBC5AFF1F5E
:10301000BC5BFF1FB05CFF1FBC56FF1F1F85EB5141
:1030200091F89D3003EB830303EB8303DB00A4F8EB
:10303000B43093E691F89C3003EB830303EB8303F6
:10304000DB00A4F8B43089E62DE9F043B14C2378D5
:1030500013F0100385B041D0AF4B1B7BDA074CD483
:10306000AE4BAF4E93F8993013F0300F07D0AD4B05
:1030700093F8663003F00303012B00F2F680737FB0
:10308000A948B6F9022002925B00CDE90003A0F145
:103090005002A0F110030821583822F037FC00EB51
:1030A000800000EB8000C400A4B2A6F8B44042F255
:1030B00010739C4240F2C2809C499D4A09889D4FF2
:1030C0009D4DA6F8B43011609C4AD36823F04003AC
:1030D000D360387801212AF077FC08E097499048BE
:1030E000CA68954D22F04002CA60A0F8DE302B7805
:1030F00001332B7005B0BDE8F0838F4D2B7803F0C2
:103100000703012B49D0864E8D4F3B78DB0766D4F1
:10311000337F72699A4266DBDFF8088298F82630BE
:1031200013F0020340F0C080B6F8B070A6F8DE30AD
:10313000002F00F0C58095F8009009F00F09B9F153
:10314000010F00F0D3807F48B6F9023002933FB2FE
:10315000A0F11003A0F15002CDE900070821583872
:1031600022F0D4FB00EB800000EB8000410089B22C
:10317000754820F0CBFAB6F8B440002C00F0B280CD
:10318000002877D142F20F739C4200F2A9806B4A6B
:10319000D36843F04003D360A9E7604B93F89930BC
:1031A00013F0300F06D05F4B93F8663003F0030343
:1031B000012B6AD85A4E5C48737FB6F902200292FE
:1031C0005B00CDE90003A0F15002A0F1100308213B
:1031D000583822F09BFB4000A6F8B00094E7BB787B
:1031E00072699A4298DA584820F046FB7C784F4B37
:1031F000564A1B884E49514F04EB840404EB840467
:10320000A40004FB03F3A2FB03235B0B0B60FB682E
:10321000A6F8B44043F04003FB60002CB2D14A480A
:1032200020F02AFBFB68A6F8B44023F04003FB60C3
:10323000404F214638782AF0C7FB0BE044BB3F4A99
:103240003C4FD3683C4D23F04003D360387821468F
:103250002AF0BAFBB6F8B43042F20F7293423FF64E
:1032600033AF002B3FF443AF91E7FFF755FDB6F8BE
:10327000B4401CE72D4B354A1B882D4904FB03F352
:10328000A2FB03235B0B0B607CE7FFF745FD3AE7EE
:10329000264B2E4A1B882649274D04FB03F3A2FB2D
:1032A00003235B0B0B606DE796F86D10284822F046
:1032B000C9F8B6F8B030184487B2A6F8B07037E74E
:1032C000214820F0D9FA1D4AA6F8B470D3683946CF
:1032D000184F23F04003D36038782AF075FBB9E724
:1032E000144FF1E6154A2146D368F1E798F82B20F0
:1032F00098F83F10144820F0B9FA94F90D30002BDB
:1033000028DB11484B464A46494620F08BFAB6F86E
:10331000B07018E73C5BFF1FBC5AFF1FBC5BFF1F70
:10332000B05CFF1F3C5AFF1FBC56FF1FC420FF1F8D
:10333000C820FF1F1566FF1F7820FF1F0090034065
:103340008C59FF1F2457FF1F7C20FF1F5917B7D12F
:103350003C5EFF1F94F83B3094F83A2094F8391003
:10336000024820F05FFAB6F8B070ECE67C20FF1F50
:103370002DE9F041904D2B789B0684B014D48F4CEE
:103380008F4B93F8953013F0010368D08D488E4D24
:103390008E498F4A00232B70C4F8F83003600B70FD
:1033A000137004B0BDE8F0818A4E844C96F87E30EC
:1033B000626B283B9A42E3DB94F87730DF07DFD576
:1033C000834B1A782AB9844A1168844A1160012211
:1033D0001A70737903F0F803482B00F0C680804A16
:1033E00013786BB97C4B19687C4B1B68C91A96F82B
:1033F0007F3003EB830303EB8303B1EB430FD0D3A5
:1034000001231370AB79980737D503F00302022A22
:1034100000F0FC80D4F8F860DFF8A48198F89530CB
:10342000DB0700F18E80002E40F0A480D4F810312C
:10343000002B00F0BD816B4A536943F04003536198
:10344000D4F8F830C72B02DC604B00221A70D4F895
:103450001031C72BA5DC644B00221A70A1E761492B
:1034600062484A6922F040024A6161495E4A0B7033
:10347000C4F810310360137088E703F00C03042BC9
:1034800000F06F815B48B4F90220B4F91430029265
:10349000CDE90003A0F15002A0F110030821583833
:1034A00022F034FAAA79C4F8F80012F003030646B1
:1034B00004D1C728DCBF1E46C4F8F8304E4F4F4930
:1034C0003B88DFF8FC8006FB03F36433A1FB0313A6
:1034D0003C49C3F38F130B6098F8AD3059069DD566
:1034E000B4F90230029302F00C02042A08BF637F91
:1034F000434818BFB4F91430009008BF5B00019333
:10350000A0F15002A0F110030821583822F0FEF972
:10351000AB79C4F8100113F0030304D1C728DCBF52
:10352000C4F8103118463B88344A3049D4F8F86062
:1035300000FB03F36433A2FB0323C3F38F130B607D
:103540006CE7002E00F01381C72E00F32681254A78
:10355000536943F040035361D4F8F830C72B3FF769
:1035600020AF1A4B00221A701BE70AF0BDFBA4F82B
:10357000F20034E7C72E7FF75EAFD4F81031C72BC7
:103580007FF759AF1F4B114C187801212AF01CFA14
:103590001D4B012118782AF017FA0B4A14481249DA
:1035A000012313700F4A237003700B70536923F0CB
:1035B00040035361F5E600BF3C5BFF1FB05CFF1F9B
:1035C0004C58FF1F4420FF1F0421FF1FF920FF1F3D
:1035D0009021FF1FBC5AFF1F9C66FF1F9421FF1FF5
:1035E0005221FF1F009003404421FF1F4820FF1F6E
:1035F0005021FF1F306CFF1F9821FF1F1F85EB51CB
:10360000C86BFF1F5866FF1F5966FF1F03F00C03AE
:10361000042B00F0F180B4F902300293AA48B4F907
:103620001430AA4FDFF8F082CDE90003A0F1500278
:10363000A0F110030821583822F068F93B7884F88B
:10364000F40003F01F03012B00F0DD80B4F9F23029
:1036500098F88420934240F3948098F88520934210
:1036600000F38F80AA7912F0200F94F8F42002D092
:10367000934200F0F680964996480A60964A0121E6
:10368000136000221FF088FE68B1944B1A8894F8EA
:10369000F83002FB03F3924A6433A2FB0323914AFE
:1036A000C3F38F13136094F8093103F0FD0384F81A
:1036B000093198F8AD305A064DD5AB7903F00C03BB
:1036C000042B00F0B28088480090B4F902300293D5
:1036D000B4F914300193A0F11003A0F150020821B5
:1036E000583822F013F93B7884F80C0103F01F03DB
:1036F000012B00F0A380B4F90A3198F8842093429A
:103700006EDD98F8852093426ADCAA7912F0200FCA
:1037100094F80C2102D0934200F0BC8073497448A5
:103720000A60744A0121136000221FF035FE60B167
:103730006A4994F8103109886F4A01FB03F3643336
:10374000C821B3FBF1F39BB2136094F8093103F085
:10375000FB0384F809313B78D4F8F86001333B70FF
:103760005CE6637F5848B4F902205B008FE6634B48
:10377000314618782AF028F9614A624B16701E709B
:103780000FE694F80931574A43F0020384F80931EF
:1037900000231360C4F8F8308BE7584B01211878E8
:1037A0002AF012F95649574A01230B701370F8E5B5
:1037B000524B314618782AF007F9534B31461878A6
:1037C0002AF002F94F4A4E48504B51490670167084
:1037D000504A0E701E70536923F040035361E0E5B8
:1037E00094F809314449002243F004030A60C4F804
:1037F000102184F80931AEE7637FB4F90220324822
:1038000002925B000DE7002398F87F100093314887
:1038100098F8813098F880201FF032FEA9792D4861
:10382000C1F300111FF002FF10E7637F2E480090E4
:103830005B000193B4F9023002934CE7002398F83F
:103840007F1000932A4898F8813098F880201FF064
:1038500017FE96F87B10264801F001011FF0E6FEE6
:1038600049E71E4B98F87E201B88C4F8F82002FB1D
:1038700003F31C4A1748C8216433B3FBF1F39BB22E
:1038800013601FF0C1FE94F8093103F0FD0384F8C2
:1038900009310EE7114B98F87E201B881649C4F8B1
:1038A000102102FB03F31248C8226433B3FBF2F386
:1038B0009BB20B601FF0A8FE94F8093103F0FB03E4
:1038C00084F8093147E700BF306CFF1F5121FF1F0B
:1038D0004C20FF1F5421FF1F5420FF1F9821FF1F62
:1038E0001F85EB514420FF1FC86BFF1F5020FF1F97
:1038F0000821FF1F5820FF1F4820FF1F5866FF1F89
:103900000421FF1FF920FF1F5966FF1F4421FF1FDD
:103910005021FF1F009003404C58FF1FF8B5574C33
:1039200094F84B3013F0030325D0554A55481268DC
:1039300094F8501012780078490602EA000224D464
:103940002ABB514D95F8DC3094F85000002603F066
:10395000FD03314600F03F0085F8E06085F8DC307B
:103960002AF032F894F85600314600F03F00BDE8E6
:10397000F8402AF029B8444A92F8DC1082F8E03086
:1039800001F0FD0382F8DC30F8BD002AD9D13E4DAC
:1039900094F84C20696B273A8A42D3DC697F94F80B
:1039A0004E209142CED995F82F1094F84F20914295
:1039B000C8D294F84D106A69B2EB410FC2DA94F89C
:1039C000571094F8512094F8520001EB810101EB5B
:1039D000810102EB82028E00698802EB82020027DD
:1039E000B1EB820F85F8E07094F8587006D900EBBF
:1039F000800000EB8000B1EB800F1ED3022BA1D121
:103A0000B1429FD907EB870707EB8707B1EB870F19
:103A100098D295F8E02095F8DC3094F8560043F001
:103A20000203023285F8E02085F8DC300121BDE890
:103A3000F84000F03F0029F0C7BF95F8DC3094F85B
:103A4000500043F00203012100F03F0085F8DC3014
:103A500085F8E01029F0B8FF94F84B3003F0030329
:103A6000022B91D16B889E428ED207EB870707EB22
:103A70008707B3EB870FCCD3F8BD00BF4C58FF1FAF
:103A8000E420FF1FE020FF1FB05CFF1F30B57B4C20
:103A900094F8AD305D0685B063D494F89530D807BE
:103AA0005FD594F89D30D90708D513F0800F744B7B
:103AB000187858D129F0BEFF002858D1714D94F8DC
:103AC000962095F80931697F03F0FE03914285F84D
:103AD000093104D32A7994F897309A424FD26A4A2E
:103AE000002385F808311360684B0021187829F00D
:103AF0006BFF674B67481A7867490023920603708B
:103B00000B7004D4654A536923F040035361644B3E
:103B10001878002105B0BDE8304029F055BFC82015
:103B2000024604465F4B85F808211B885E4A5649C9
:103B300000FB03F36433A2FB0323C3F38F130B6077
:103B4000002CD1D0564B0121187829F03DFFC82C0C
:103B50007DD0514B514A00211970536943F0400305
:103B6000536105B030BD29F065FF0028A6D1454D51
:103B700095F8093143F0010385F80931AFE76B6926
:103B800094F8981003EBD372B1EB620F4FEA620026
:103B9000A5DCEA6B94F89AC0283262459FDB94F862
:103BA0009520C2F34502032A99D80FF2080C5CF85D
:103BB00022F000BF1F3B0000293C0000073C000032
:103BC000C53B000094F99B40AA6F38481BB21444CF
:103BD000B5F902200292CDE90003A0F15002A0F154
:103BE00010030821583821F091FE24EAE4742E4B8A
:103BF00000FB04F4A3FB0434A409C82CA8BFC82408
:103C0000E2B210468EE72948B5F9022002921BB2B3
:103C1000CDE90003A0F15002A0F1100308215838AB
:103C200021F074FE0446E8E794F899305B1A23D03B
:103C300003EBD374C822401A641002FB004404FB57
:103C400003F2002A94FBF3F4D7DA013CD5E70F4BDB
:103C50000121187829F0B8FE0D4B0E481A780E494C
:103C6000012303700B7093063FF57BAF0B4A53693A
:103C700023F04003536174E76424BEE74C58FF1FF0
:103C80005A66FF1FB05CFF1F4820FF1F5966FF1FC9
:103C90003C5BFF1F5021FF1F4421FF1F009003408A
:103CA0005B66FF1F9821FF1F1F85EB51B06CFF1F44
:103CB00010B50948094C1FF0DFFD094A0948D368CF
:103CC00023F04003D3600021A4F8B4100078BDE8CD
:103CD000104029F079BE00BF7C20FF1FB05CFF1FA1
:103CE000009003401566FF1F10B5134C23788BB16D
:103CF000124B0021187829F067FE114A1148124929
:103D000053680088096803445B1A9BB20021136161
:103D1000217010BD094B0121187829F055FE084982
:103D20000A4A4868136803449BB20B61064912684B
:103D30000A600123237010BDC620FF1F1566FF1FF8
:103D400000900340C420FF1FC020FF1FC820FF1F9A
:103D5000F8B57C4C237823B37B4B1B780BBB7B4D96
:103D60002B7803F0FF07002B65D1794E794B328811
:103D70001B689A4200F3A380734B01221A70012240
:103D8000754B2A701B78754A002B00F0A18074488F
:103D9000744953680068096803445B1A9BB29361D5
:103DA000F8BD6D4D2B78002B27D16A4F3B68002B57
:103DB00003DD654B1B78002B65D06B4E3368002B01
:103DC00003DD6A4B1B78002B52D023780BB33A6883
:103DD00033689A421ADC614962484B6813449BB2CB
:103DE0008B613A6833685E4902609A420B60574BB8
:103DF0000CBF022200221A70F8BD5C4B1B78002B0E
:103E0000ADD0544F3B68002BD3DCD6E72B78002B8A
:103E1000E1D02B7823B3514A3368516851480B44A1
:103E20009BB293614E4A3C683168484B0460116014
:103E300001221A70F8BD2B78454E012BDAB22ED034
:103E4000444A33881268934267DC3F4A012111706B
:103E5000454A12689A4251DB444B01221A70F8BD60
:103E60003E4A3B49536809880B449BB29361F8BDB5
:103E70003F4B0121187829F0A7FD01232B702378EF
:103E8000002BC6D0A3E73B4B374E1878012129F011
:103E90009BFD012323703368002B92DC95E7324BA6
:103EA00031881B6899421EDC304B1A7000232B703E
:103EB00023782A4A002B43D02A48294969E72D4B09
:103EC0003946187829F080FD1F4B27701F7056E780
:103ED000244953683088096803445B1A9BB2022165
:103EE00093612970F8BD224B0021187829F06CFDF0
:103EF000194A002313701D4A1370D7E71C4B002189
:103F0000187829F061FD14491848144A00230B70F1
:103F100003701349536830883DE7164B0021187829
:103F200029F052FD084A0D490E48002323701370F2
:103F30004A68338800681A44121A92B28A6187E785
:103F40000749C6E70421FF1FF920FF1FF820FF1FC4
:103F50009821FF1F4420FF1F5021FF1F00900340A6
:103F60004C21FF1F0021FF1F4820FF1F4421FF1F7E
:103F70005966FF1F5866FF1F10B5194C2378B3B15F
:103F8000184B93F87810184B11F00101187818BFEE
:103F9000012129F019FD154A1548164B51681B8857
:103FA00000681B1A0B4400219361217010BD03F0BF
:103FB000FF010C4B93F8783013F0010F0A4B08BF48
:103FC0000121187829F000FD08490B4A4B68106858
:103FD00003448B61064912680A600123237010BDF7
:103FE000DA20FF1F3C5BFF1F2266FF1F00800B4093
:103FF000D420FF1FD820FF1FDC20FF1F70B5224EEA
:10400000224C234D96F83B3096F83A20214886B052
:1040100000210493039296F839300591A21ECDE950
:10402000002402932A1D2B46A5F19C011FF016FBCC
:10403000B37994F8662094F865100292C3F30013E4
:1040400094F86420039301910092134B1349144890
:1040500005F148021FF048FA124B94F8661093F8E5
:104060007B3094F8650094F86420029103F001031A
:104070000393019000920C4B0C490D4805F160022E
:104080001FF032FA06B070BD3C5BFF1F6758FF1F80
:10409000605DFF1F7C20FF1F4C20FF1F5420FF1F6F
:1040A0005421FF1FBC5AFF1F5020FF1F5820FF1F25
:1040B0000821FF1F10B5AB4AAB4892F87430AB4CE7
:1040C000046003F00601022900F07E8103F007037B
:1040D000062B00F07981137813F0300F51D0A44BE8
:1040E000586D40F004005865586D40F00100586567
:1040F000586D00214FF6FF7440F0020058651960BA
:10410000D96459609C6019689A4841F010019B2459
:104110001960847019681960D8689749974C20F025
:104120002000D860D86840F01000D860586920F0AE
:1041300020005861586940F0100058614B6992F8AE
:104140002D0023F020034B614B694FF0E02C43F02E
:1041500010034B614FF4006392F82E10CCF8043139
:104160008001874BB3FBF0F0208086488901B3FBC8
:10417000F1F1018092F87B2083499201B3FBF2F3C5
:104180000B80824982484EF65F2228F0A7FC814AC4
:10419000814B506D40F004005065506D40F00100BF
:1041A0005065506D00214FF6FF7440F002005065DD
:1041B0001160D16451609460586D40F004005865FE
:1041C000586D40F001005865586D40F00200586588
:1041D0001960D96459609C60106840F00800106054
:1041E0001C6844F008041C60146844F00704146060
:1041F0001C6844F007041C60D46824F02004D460D8
:10420000D46844F01004D460D46844F04004D4600E
:10421000546924F020045461546944F0100454613A
:10422000546944F040045461D46924F02004D461FA
:10423000D46944F01004D461D46944F04004D461DA
:10424000546A24F020045462546A44F01004546206
:10425000546A44F040045462D46A24F02004D462C6
:10426000D46A44F01004D462D46A44F04004D462A6
:10427000546B24F020045463546B44F010045463D2
:10428000546B44F040045463D46B24F02004D46392
:10429000D46B44F01004D463D46B44F04004D46372
:1042A000546C24F020045464546C44F0100454649E
:1042B000546C44F040045464DA6822F02002DA605E
:1042C000DA6842F01002DA60DA6842F04002DA603E
:1042D0005A6922F020025A615A6942F010025A616A
:1042E0005A6942F040025A61DA6922F02002DA612A
:1042F000DA6942F01002DA61DA6942F04002DA610A
:104300005A6A22F020025A625A6A42F010025A6235
:104310005A6A42F040025A62DA6A22F02002DA62F5
:10432000DA6A42F01002DA62DA6A42F04002DA62D5
:104330005A6B22F020025A635A6B42F010025A6301
:104340005A6B42F040025A63DA6B22F02002DA63C1
:10435000DA6B42F01002DA63DA6B42F04002DA63A1
:104360001CE000BF3C5BFF1FF452FF1F780CFF1FD7
:10437000009003400040064000800B40C420FF1F17
:1043800040420F009821FF1FD820FF1F4D5D020003
:104390008871FF1F0080034000900B405A6C22F090
:1043A00020025A645A6C42F010025A645A6C4FF060
:1043B000E0214FF48060802442F040025A64C1F84A
:1043C0000401C1F8084110BD194B586D40F00400BC
:1043D0005865586D40F001005865586D00214FF642
:1043E000FF7440F0020058651960D96459609C6000
:1043F0001968104841F010019B24196084701968F5
:104400001960D96821F02001D960D96841F0100104
:10441000D960596921F02001596159694FF0E020B4
:104420004FF4805441F010015961C0F8044152E644
:1044300000800B40004006402A4BDA685969D86971
:104440001206F0B45C6ADD6A5E6BDF6BD3F844C0C1
:1044500017D409060ED4020621D4240626D4280631
:1044600016D4310630D43A0635D41CF0800F24D14E
:10447000F0BC70475A6922F08002F0BC5A6118F013
:10448000EDBEDA6822F08002F0BCDA6018F0B6BE49
:10449000DA6A22F08002F0BCDA6219F02FB8DA6929
:1044A00022F08002F0BCDA6118F008BF5A6A22F0EC
:1044B0008002F0BC5A6218F031BF5A6C22F08002C0
:1044C000F0BC5A6419F016B95A6B22F08002F0BCA5
:1044D0005A6319F067B8DA6B22F08002F0BCDA6335
:1044E00019F0B4B80080034008B5374BDA681106FC
:1044F0001CD4354B5A69120622D4334BDA691006A4
:1045000028D4314B5A6A11062ED42F4BDA6A120680
:1045100034D42D4B5A6B10063AD42B4BDA6B110660
:1045200040D4294B5A6C120646D408BDDA6822F0F2
:104530008002DA6018F022FF234B5A691206DCD59C
:104540005A6922F080025A6118F048FF1E4BDA695E
:104550001006D6D5DA6922F08002DA6118F06EFF13
:10456000194B5A6A1106D0D55A6A22F080025A6253
:1045700018F094FF144BDA6A1206CAD5DA6A22F0F0
:104580008002DA6219F00AF90F4B5A6B1006C4D593
:104590005A6B22F080025A6319F054F90A4BDA6B15
:1045A0001106BED5DA6B22F08002DA6319F09EF9AB
:1045B000054B5A6C1206B8D55A6C22F080025A6428
:1045C000BDE8084019F0E6B900900B40094BDA68E5
:1045D0005969100608D40A0600D470475A6922F0B7
:1045E00080025A61FFF7B4BBDA6822F08002DA6019
:1045F000FFF77ABB00900340094BDA68596910064F
:1046000008D40A0600D470475A6922F080025A6121
:10461000FFF7B2BCDA6822F08002DA600FF0C2B9AC
:1046200000800B4010B5012082B02DF001FD044642
:104630002DF006FD01AB181B4FF6FF73984228BF03
:10464000184680B202B010BD08B529F02FF900213C
:1046500008BD00BF704700BF704700BF00BA704779
:10466000F0B5124F124E83B0002440F6B8352BF04F
:10467000B9F940B93B680193019B32689B1AAB4280
:10468000F5D903B0F0BD2BF071F904F108036B44C8
:10469000032C04F1010203F8080C01D01446E6E7EC
:1046A000009803B0BDE8F040FFF7D8BF0873FF1FC4
:1046B000BC29FF1F2DE9F843184BDFF864901A78E6
:1046C00007460E461AB100221A7089F8992099F807
:1046D000002099F87530DFF84C8083EAC21399F80E
:1046E000752003F080035340002489F8753088F862
:1046F00000405EB12546381980B213F045FF013401
:104700004544E4B2B44268702546F4DB99F8DC30E5
:1047100003F0F70389F8DC30BDE8F8837D08FF1F5C
:10472000B05CFF1FA021FF1F2DE9F047884282B037
:1047300005460E4607D306F10408A84522D8A8B2BC
:1047400002B0BDE8F0870027DFF89890A1EB000ADF
:104750003C460AE019F808002BF0FCF90134A4B239
:104760000128274638D1A24538D905EB07082BF098
:10477000FFF90028EED13D44AE42DCD9A8B202B028
:10478000BDE8F087B2B21749174801231EF0F8FCC4
:10479000FFF764FFB8EB0508A5EB06060190CED045
:1047A000002706F108033C460DEB03060AE013F868
:1047B000040C2BF0CFF901340128A4B207D1A04595
:1047C00027460DD92BF0D4F9F3190028EFD13D4439
:1047D000A8B202B0BDE8F0874546CDE72544CBE757
:1047E0002544ACE7A021FF1F9C21FF1F70B5114D90
:1047F000012304462B70060A2BF0BAF90028FBD0DF
:1048000030462BF0A7F9E6B22BF0B2F90028FBD026
:1048100030462BF09FF9084B214600201C80FFF703
:1048200083FF0434241A054B18BF012418802C7010
:1048300070BD00BFEF52FF1FB429FF1FA429FF1F47
:1048400038B5FFF70BFF0446C5B22BF091F90028ED
:10485000FBD028462BF07EF9C4F307252BF088F90E
:104860000028FBD028462BF075F9C4F307452BF040
:104870007FF90028FBD028462BF06CF9250E2BF091
:1048800077F90028FBD028462BF064F9204638BD84
:1048900030B583B08DF807002BF06AF90028FBD003
:1048A00000202BF057F92BF063F90028FBD00120F2
:1048B0002BF050F99DF807402BF05AF90028FBD057
:1048C00020462BF047F9012316481A460DF107013F
:1048D0001EF056FCFFF7C2FE0446C5B22BF048F9A5
:1048E0000028FBD028462BF035F9C4F307252BF020
:1048F0003FF90028FBD028462BF02CF9C4F30745DC
:104900002BF036F90028FBD028462BF023F9240E93
:104910002BF02EF90028FBD020462BF01BF903B01A
:1049200030BD00BF9C21FF1F40283ED12DE9F84F2C
:104930001F4C204F204E8946A2F1020BA3F1020A20
:1049400004F140080025E179207A28F0EBFA00B262
:1049500087FB0032C317C3EBA203203B1BB203EB60
:10496000830386FB0312DB17C3EB62032833023495
:1049700023EAE37305F1210244452BF8023F2AF8AC
:10498000025F95B2DFD1012340220C490C481EF092
:10499000F7FB0146484620F011FD484620F0D0FCC8
:1049A000BDE8F84F0020FFF773BF8420FFF770BF0A
:1049B000A021FF1F67666666398EE338A721FF1FB7
:1049C0009C21FF1F2DE9F043DFF8388198F874101F
:1049D00011F0400183B00DD1454B1A687E2A09D8E9
:1049E00044481A6840F822101A6801321A601A689E
:1049F0007E2AF6D9404D2B78002B53D000247E2BF5
:104A00003ED83C4F3D4E2BF0B3F803286ADD2B789F
:104A100057F82300FFF722FE04465FFA80F92BF0D7
:104A2000A7F80028FBD048462BF094F8C4F30729D8
:104A30002BF09EF80028FBD048462BF08BF8C4F3EF
:104A400007492BF095F80028FBD048462BF082F858
:104A50004FEA14692BF08CF80028FBD048462BF065
:104A600079F8042200230DEB0201304601941EF078
:104A7000A3FB2B780133DBB27E2B04462B70C2D90B
:104A800098F874301E491A4A03F0BF0388F874304E
:104A9000E04300230B7013602B7003B0BDE8F043BC
:104AA000FFF7CEBE2BF064F80028FBD001202BF0DE
:104AB00051F82BF05DF80028FBD0FD202BF04AF8D0
:104AC00000230E488DF80430012201A91EF058FB86
:104AD00004462BF04DF80028FBD000202BF03AF8CC
:104AE0002B788CE7064B03221A7003B0BDE8F083E5
:104AF0003469FF1F3867FF1FED52FF1F9C21FF1F06
:104B0000EF52FF1FB05CFF1F2DE9F047DFF87C81FB
:104B100098F8744014F0400482B014D1554B1A68D0
:104B20007E2A10D85449554D1A681868013A51F830
:104B3000222041F820201A68AC541A6801321A6009
:104B40001A687E2AF0D94E4C2378002B6BD04FF098
:104B500000097E2B54D8484F4A4E484D2BF008F898
:104B600080B204287FD9237857F82300FFF776FD19
:104B700081465FFA80FA2AF0FBFF0028FBD05046FE
:104B80002AF0E8FFC9F3072A2AF0F2FF0028FBD039
:104B900050462AF0DFFFC9F3074A2AF0E9FF002850
:104BA000FBD050462AF0D6FF4FEA196A2AF0E0FF00
:104BB0000028FBD050462AF0CDFF042200230DEB45
:104BC00002013046CDF804901EF0F6FA237815F86D
:104BD00003905FFA89F92AF0CBFF0028FBD0484602
:104BE0002AF0B8FF217800230122294430461EF024
:104BF000E3FA23780133DBB27E2B81462370ADD9F3
:104C000098F874301B49204A03F0BF0388F87430C9
:104C10006FEA090000230B601370237002B0BDE837
:104C2000F047FFF70DBE2AF0A3FF0028FBD00220BB
:104C30002AF090FF2AF09CFF0028FBD07C202AF06D
:104C400089FF00230F488DF80430012201A91EF0CE
:104C500097FA81462AF08CFF0028FBD000202AF02A
:104C600079FF237875E7084B05221A7002B0BDE87A
:104C7000F08700BF3469FF1F3867FF1FCC57FF1F45
:104C8000ED52FF1F9C21FF1FEF52FF1FB05CFF1F63
:104C900070B51B4C2378013B82B0042B0DD8DFE8A4
:104CA00003F0130322270E00164A174910780978DB
:104CB000164B0094302202F0BBFD02B070BD02B072
:104CC000BDE87040FFF720BF114E124D3188288893
:104CD000FFF72AFD3388288004331B1A18BF0123ED
:104CE000237002B070BD02B0BDE87040FFF76ABE2D
:104CF000044B187802B0BDE8704003F01FBD00BF40
:104D0000EF52FF1FED52FF1FEC52FF1F840EFF1FDB
:104D1000B429FF1FA429FF1F2DE9F04F964C2378DB
:104D2000413B87B0372B39D8DFE813F0A101CE0023
:104D3000F0003800E80001013800FD00F900F5003E
:104D4000380038007E0038007A0038003E00380015
:104D50006700BE01A80138003800D10138003800D2
:104D60003800380038003800380038003800930028
:104D70003800530038004D003800CA0038000501E3
:104D8000C600380038003800A300A70038003A01F8
:104D9000380009013800380074016300832007B02F
:104DA000BDE8F04FFFF774BD744D734C0FCD0FC4C9
:104DB00095E8030044F8040B1520217007B0BDE806
:104DC000F04FFFF713BD6E4A226001230620A38037
:104DD000F4E7A07814F0FCFEFFF740FC0023014646
:104DE000059168482370042205A928F0EDFA0520F2
:104DF000E4E714F0C1FD0020D1E7634D5E4C0FCD18
:104E00000FC495E8030044F8040B16202180FFF737
:104E1000EDFC5E4B002283F8992007B0BDE8F08FCF
:104E200014F0CAFC0020BAE7E1782079A77828F0CE
:104E300079F861790346A0791C4628F073F8054695
:104E4000384615F02DF96619864240F3CA81842050
:104E5000A5E728F039FE4E4B1B68984200F2AE8160
:104E60004A4A92F8093143F0100382F809310420CC
:104E700095E714F0DFFC002091E76179A07928F034
:104E800051F80023E17823700746207994F80280D6
:104E900028F048F8044667B1C619374DB6B2214626
:104EA000404615F045FA0134A4B2A64205F8010FB8
:104EB000F5D1781C80B281E7A07820F093FA8BE7D7
:104EC00014F05EFB00206AE7314E304D336895F8F0
:104ED000092103F57433903342F04002336085F8C2
:104EE000092128F0F1FD3368984200F2678195F8B6
:104EF000093143F0100385F80931B8E7A1786078EB
:104F000028F010F8FCF7DCFC002048E74FF47F4362
:104F10000220238052E714F083FB00203FE70023A8
:104F2000042023804AE714F0D7FA002037E7194B12
:104F30002360042042E714F0DBFB00202FE72179F7
:104F4000E078A57827F0EEFFA1790646607927F092
:104F5000E9FF022D074600F07981012D00F0F9816B
:104F6000002D7FF474AF0C4B0C4A294607B0BDE806
:104F7000F04FFFF7D9BC00BFA021FF1FC47403008E
:104F8000000200FBA121FF1FDC740300B05CFF1FC7
:104F90007471FF1F003030324C57FF1F8C57FF1FBA
:104FA000E1782079A57827F0BDFF61790746A079DF
:104FB00027F0B8FF21790646E07827F0B3FFA17902
:104FC0008046607927F0AEFF302D00F03881073D34
:104FD0000D2D3FF622AF01A252F825F081510000BD
:104FE0001B4E00001B4E00001B4E00001B4E00001D
:104FF0001B4E00001B4E00001B4E0000A94D000080
:105000001B4E0000255100001B4E00001B4E0000EF
:10501000D75000002179E078A67827F083FFA179A6
:105020000546607927F07EFF112E00F0F180072EF3
:105030007FF4F3AE40F27E239D427FF4EEAE09286A
:105040007FF4EBAE627AE37AA17B607BE679257A26
:105050000392247B029327F065FF029B0190039A41
:1050600000943046294615F033FD002097E67F2155
:10507000002007B0BDE8F04FFFF71CBBB94B1B7811
:10508000002B00F09F80B84B1B78002B00F059815B
:105090002AF0A8FC0028FBD0B44B1878002107B0F8
:1050A000BDE8F04F28F090BCB14BB24993F8F02026
:1050B00000200870002A40F0BD8093F8F130002BEA
:1050C0003FF4ABAE07B0BDE8F04FFFF71DBD14F0E5
:1050D000E9FB002063E6B0F5006F7FF49EAEA64AC0
:1050E000A64BA7481B6884F8028000212170116834
:1050F00002684FEA182593426570B6D99B1A042BB3
:105100001C46A8BF04242244002B0260ADDDA4B2DB
:105110009C48224601EB8801FBF76CFB60020330E0
:1051200080B24BE6B8F1000F7FF477AE102800F0A4
:10513000778140F2022290427FF46FAE924EDFF808
:105140007892358884F800802D010135ADB20127B1
:1051500040F2012829464846FBF7CCFD013507F10E
:105160002003ADB209F1200910B19FB24745F1D13A
:105170003388E355E219190AB81C80B251701DE654
:105180000023237015F07AFC607015F07DFCA07090
:1051900015F080FCE07015F089FC207115F080FCA2
:1051A000607115F089FCA07115F08CFC000AE071AB
:1051B00015F088FC034623720920FFE5A0781EF055
:1051C00075FC54E6684B1B78002B7FF426AE242137
:1051D0006E482AF039FC6E4807B0BDE8F04F27F062
:1051E00067BD5DB16B4DB6B22146013415F8012F94
:1051F0003846A4B214F05AFFB442F5D128F064FC4A
:10520000654A00F5742303F5107300201360C6E5AA
:10521000002D6CD101287FF400AEE379022B00F061
:105220002481032B00F02681042B7FF41EAFFBF7B3
:105230003FFC1AE707B0BDE8F04FFFF7C3BB3846A5
:105240003146FFF737FA701C80B2B7E5002E00F048
:105250008380002800F00781DFF84C814F4DDFF894
:105260005CB1029707F1FF3933461FFA89F9A6F1BD
:10527000070A09F108094646072498461FFA84FCE4
:105280000CEB0A0EACF1070C01221CF01F0F294693
:105290004FF00003584614441FFA8EFE09D14FEA1E
:1052A0005E1C3F4F27F81CE03E4F95F800E007F8E2
:1052B0000CE0B0474C453C4E05F10105DED1029FA4
:1052C00046463E440146B6B240F2FE339E4206D9FF
:1052D0000220C94320F072F8022020F031F80020AB
:1052E000FFF7D6FA07B0BDE8F04F2AF065BC012DF4
:1052F0000BD102287FF491AD217AE07927F012FEDC
:10530000214B02461A80002049E5022D0ED10428C7
:105310007FF483AD227AE379617A1343A27A0B4357
:1053200013437FF4A2AEFCF7ABF99EE6032D3FF4E6
:1053300074AD062D46D0072D4FD104287FF46DADF6
:1053400093E62F2119482AF07FFB114827F0B0FC83
:105350009EE6174B174A08E60028C0D0DFF86080A9
:105360007CE700BF6466FF1FEF52FF1F3D66FF1F13
:10537000B05CFF1FED52FF1FB029FF1FA829FF1FC0
:10538000B829FF1FA321FF1FAC29FF1F9C74030036
:10539000840EFF1FA621FF1F7471FF1FA721FF1F8F
:1053A0009865FF1FD865FF1FB93102006C740300B8
:1053B0003861FF1F7861FF1FA121FF1F9C21FF1F84
:1053C0008131020006287FF428ADE079A37A627A61
:1053D000217AFCF7F1F90020E1E4052D7FF41DAD01
:1053E00008287FF41AAD217BE37A207AE279657A86
:1053F00043EA0123617B43EA0143A17BA47A42EAA9
:10540000002243EA01631F491F481BBA42EA0542D2
:1054100042EA04620B601D4B026000201860BEE48B
:105420001B4A84F8008092F8152162704FF40073D3
:10543000638084F80480FCF7F5F9030C020EA37175
:10544000030A6271E3712072FBF768F9831EC3F3EC
:10545000072211206272A37284F80B80C4F80C80BA
:1054600084F81080AAE401462EE7FBF739FC094BCB
:105470001D70FAE50290FBF74DFB064B0298187081
:10548000F3E500BFA829FF1FB029FF1FB829FF1FA0
:10549000B05CFF1F5C16FF1F2DE9F047544D2B78C1
:1054A000082B84B000F09E802AF09CFA00284FD18F
:1054B000DFF85491DFF854814E4C4F4E4F4F2AF095
:1054C00091FA002813DD2B78072B10D1338822881E
:1054D00002339A4219D22AF049FA2388FA18013382
:1054E00002F8020C23802AF07DFA0028EBDCD9F8C0
:1054F00000300393039BD8F8001040F6B8325B1AD3
:1055000093425BD804B0BDE8F087FFF7A9F8D9F85B
:1055100000300293D8F80020029B9B1A40F6B83264
:105520000021934229708246C9D832883448012329
:1055300039461DF025FE504536D08220FFF7A8F9E8
:1055400001E02AF013FA2AF04DFA0028F9DCB6E758
:105550002B78002BACD12AF02DFAC4B2462C41D0C6
:10556000A4F14103392B38D93F2C36D02AF0FEF96B
:105570002AF038FA0028FBD02AF0F8F9C1B2204608
:1055800027F0D0FCDFF880901B4AD9F8003010805B
:10559000184ADFF8788001930221019B11800722CD
:1055A0002A70C8F8003087E7FFF7B6FB154A92F873
:1055B000093103F07F0382F8093180E700232B7063
:1055C00001E02AF0D3F92AF00DFA0028F9DC802056
:1055D00004B0BDE8F047FFF75BB90A4B93F8093117
:1055E0001B06C3D504B0BDE8F04703F041B900BFC6
:1055F000EF52FF1FA429FF1FB429FF1FA021FF1F87
:105600009C21FF1FB05CFF1F0873FF1FBC29FF1FF9
:1056100001481DF067BD00BF9C21FF1F002070479F
:10562000034B186810B103681B681847704700BF28
:10563000DC52FF1F00F500502DE9F04196464A4A22
:10564000C0F8101914681368484DB5FBF1F043F029
:10565000A043B5FBF0F590B04D1B04F080741360CF
:105660001368DE01FCD505284FF0000C22D93F4E0F
:1056700063465A1C0233B0FBF3F7192F07FB03F301
:105680000FD8B6FBF3F3CB1A002BB8BF5B42AB428B
:1056900009DA1D4694460B2F06D9122F9CBF1D46D2
:1056A00094461346E5E7F6D0052FFAD80CF101032E
:1056B000B0FBF3F00538142848D8B5F5967F45DCE3
:1056C00000EB40002A4FDFF8A08000F140030DEB13
:1056D00003050FCF6E460FC60FCF0FC60FCF0FC6F5
:1056E00097E80F0007C626F8023B1B0C337015F82D
:1056F0003F3C15F83E2C15F8401CDB04120402F464
:10570000E02203F46013134301F00702134343F450
:10571000800343EA0C6343F48043C8F80430D8F8AC
:105720000430BEF1020F14BF23F0080343F0080356
:10573000C8F804303CB90C4A136823F08053136056
:105740001368DB01FCD410B0BDE8F081002CFAD165
:10575000054A136823F0805313601368D901FCD401
:1057600010B0BDE8F08100BF004002400024F4000A
:10577000187503000020704700207047082070470C
:1057800010490B68486B0A68496B02F07F02C1F34D
:10579000036101320431B2EB410F10D303F07F03F8
:1057A000C0F30360053B0130A3EB4003DBB2054AC5
:1057B000106800F07F000130C01AC0B270470023AB
:1057C000F5E700BF00400240124B1A78EAB1124AD6
:1057D000126B62B91A70114B9A6CB2F5007F04BF5C
:1057E00000229A640C4B4FF400721A637047002237
:1057F0001A70094B1A6BB2F5007F04BF00221A63BE
:10580000064B4FF400729A6470470028F1D00128CB
:10581000E1D070474808FF1F0090044000A00440FA
:10582000124B1A78EAB1124A526B62B91A70114BD4
:10583000DA6CB2F5007F04BF0022DA640C4B4FF43F
:1058400000725A63704700221A70094B5A6BB2F506
:10585000007F04BF00225A63064B4FF40072DA64E3
:1058600070470028F1D00128E1D070474908FF1F98
:105870000090044000A00440624A2DE9F041146801
:10588000136843F0A04304F0807413601368DD01D3
:10589000FCD51168DFF874C15B4F5A4E002321F02C
:1058A0000051116093621268194603EB0C02DD1976
:1058B0001201AD00D16091605160116029603268C1
:1058C000013302F07F02DBB201329342EDD3B164C7
:1058D0003161336B3363336800284BD1DFF82C819F
:1058E000484E494F054619E0336803F07F03013302
:1058F000B0EB930F34BF4FF080634FF08C631360B5
:10590000736BC3F300439B070B603368013503F0EF
:105910007F03EDB201339D42284620D2336803F065
:105920007F030133E91905EB0802B0EB530F4FEA8F
:1059300081014FEA0212D7D34FF00063136033683E
:105940009A0003D5FFF71CFFA842DED801231F2DC4
:1059500003FA05F34CD8B26A1343B362D5E73CB9F6
:10596000284A136823F0805313601368DB01FCD4CA
:10597000BDE8F08143F000533360356815F0005501
:105980003ED0FFF7FDFE336803F07F03013383420F
:105990000546E4D91D4FDFF86C804FF000660DE03E
:1059A000D8F828201343C8F82830D8F8003001353B
:1059B00003F07F03EDB201339D42D0D2EB191B01FE
:1059C0001E60D8F80030990003D5FFF7D9FE854254
:1059D000EBD301231F2D03FA05F3E1D9D8F82420D6
:1059E0000123A5F120018B401343C8F82430DCE7E4
:1059F000726AA5F1200101238B401343736284E78F
:105A00003368C7E7004002402092001008240004D9
:105A100040F22933984210B538D01ED940F2455390
:105A200098425FD0B0F5B46F16D13E4B3E4AB3F802
:105A30000031106003EB431403EB840308219BB295
:105A400023FA01F0FF24D172537300214FF02D434C
:105A500014739073D173136110BDB0F5207F53D0D0
:105A600040F216339842F7D12E4B30495B882E4ACC
:105A70009B01A1FB031308242D491060DB0840F6AD
:105A80000540D4729081D381116110BD254C294A03
:105A9000636B94F81DE0247F08339B0082FB03C2F4
:105AA000A2EBE3724FF0320C234BFE2111FB0EC12F
:105AB000A3FB01311C4B92B218600720FF2AD87259
:105AC0004FF0110028BFFF22C1F3471118734FF0A8
:105AD000080C002083F80FC05A739C731874597413
